:020000040800F2
:1000000018070020290200083F1A0008D11800082C
:100010003D1A0008EF060008151F00080000000048
:10002000000000000000000000000000431A00086B
:10003000F106000800000000411A0008451A0008F7
:10004000430200084302000843020008430200087C
:10005000430200084302000843020008430200086C
:10006000430200084302000843020008430200085C
:10007000430200084302000843020008430200084C
:10008000430200084302000843020008430200083C
:10009000430200084302000843020008430200082C
:1000A000430200089D1A00084302000843020008AA
:1000B000430200084302000843020008430200080C
:1000C00043020008430200084302000843020008FC
:1000D00043020008091F0008430200084302000809
:1000E00043020008430200084302000843020008DC
:1000F00043020008430200084302000843020008CC
:1001000043020008430200084302000843020008BB
:1001100043020008430200084302000843020008AB
:10012000430200084302000843020008430200089B
:10013000430200084302000843020008430200088B
:10014000430200084302000843020008430200087B
:10015000430200084302000843020008430200086B
:10016000430200084302000843020008430200085B
:100170004302000843020008430200080000000098
:100180004302000800F002F800F03FF80AA090E8EF
:10019000000C82448344AAF10107DA4501D100F042
:1001A00034F8AFF2090EBAE80F0013F0010F18BFD0
:1001B000FB1A43F0010318474C1F00006C1F00009E
:1001C000103A24BF78C878C1FAD8520724BF30C883
:1001D00030C144BF04680C60704700000023002455
:1001E00000250026103A28BF78C1FBD8520728BF47
:1001F00030C148BF0B607047642900F0FB800020CD
:1002000070471FB51FBD10B510BD00F036FA11467E
:10021000FFF7F7FF01F090FE00F054FA03B4FFF788
:10022000F2FF03BC00F05CFA094880470948004728
:10023000FEE7FEE7FEE7FEE7FEE7FEE7FEE7FEE796
:10024000FEE7FEE704480549054A064B70470000F3
:10025000991A0008850100081801002018070020DD
:10026000180300201803002053EA020C00F06980F4
:100270002DE9F04B4FF00006002B1FBFB3FA83F5BA
:1002800003FA05F424FA05F65E4012BF1643B2FAEB
:1002900082F502FA05F4C5F120051EBF22FA05FC1D
:1002A00044EA0C04203556EA044C4FEA144418BFC3
:1002B000641C4FF000084FF00009904271EB030CF2
:1002C00039D3002919BFB1FA81F701FA07F6B0FA5C
:1002D00080F700FA07F6C7F120071EBF20FA07FCD7
:1002E00046EA0C062037B6FBF4FCA7EB0507103FE7
:1002F00007F01F0BCBF120060CFA0BFB2CFA06F6CD
:1003000044BFB3460026202FA4BF5E464FF0000B2B
:100310005BEA060C08BF4FF0010B19EB0B09ABFBB6
:10032000027C48EB0608C01B06FB02CC0BFB03CC8F
:1003300071EB0C01C1E70B46024641464846BDE859
:10034000F08B13B54FF000004FF00001AFF30080C9
:10035000BDE81C40704700000FB41CB50C0007AA94
:10036000009001D02044401E074B7B446946019019
:10037000069800F062F9002C03D06946002000F0D6
:100380006FF91CBC5DF814FBFD0200002DE9F04183
:100390000E460446002020622046E168884730B3BC
:1003A000252805D0D4E901219047206A401CF2E7B6
:1003B000E168204600278847050018D0A5F14100D4
:1003C000192802D820354FF40067324629462046C6
:1003D0002760FFF711FF40B1012804D0F61D26F079
:1003E00007060836D8E7361DD6E72846DAE7206A3A
:1003F000BDE8F0812DE9F04106460024106875291A
:10040000314616A510D0AFF30080002802DA404232
:1004100013A507E031688A0701D512A502E0490754
:1004200004D511A5012401E0AFF3008000210A22C8
:1004300006F1240709E0B0FBF2FCB0FBF2F302FB8B
:100440001C00303078541846491C0028F3D123464C
:100450002A463046BDE8F04100F091B800000000A7
:100460002D0000002B0000002000000010B5431CF0
:1004700002E010F8011B71B18107FAD14FF001328F
:1004800002C88C1A8C4314EAC211F9D0C01A0A06A9
:1004900003D0C01E10BDC01A10BD0A0401D0801EBA
:1004A00010BD0902FCD0401E10BD4FF0000200B587
:1004B000134694469646203922BFA0E80C50A0E887
:1004C0000C50B1F12001BFF4F7AF090728BFA0E835
:1004D0000C5048BF0CC05DF804EB890028BF40F801
:1004E000042B08BF704748BF20F8022B11F0804F43
:1004F00018BF00F8012B70474FF0013C50F8042B57
:1005000051F8043B9A4221D1A2EB0C03934313EA26
:10051000CC1317D150F8042B51F8043B9A4215D153
:10052000A2EB0C03934313EACC130BD150F8042B2A
:1005300051F8043B9A4209D1A2EB0C03934313EA0E
:10054000CC13DBD04FF00000704700BFD01A01BAC7
:10055000B1FA81F101F0180122FA01F0CB40C1F1AA
:100560002001DBB2C0B2C01A2CFA01F3D11A9143B8
:1005700011EAC311E6D170477047704770472DE903
:10058000F0470D4699469246044600F1240801685A
:10059000880604D5E06921F01001216000E0012007
:1005A000A84201DD471B00E00027A1697A1902EB90
:1005B0000900081AA0612078C00602D42046AFF3D3
:1005C0000080002608E0D4E901211AF806009047CF
:1005D000206A401C761C20624E45F4DB2078C00661
:1005E0000AD52046AFF3008006E0D4E9012130208F
:1005F0009047206A401C2062381EA7F10107F4DCF6
:1006000007E0D4E9012118F805009047206A401C52
:100610002062281EA5F10105F3DC2046AFF300801F
:100620002078000602D50220BDE8F0870120FBE714
:1006300001694A1C02610878704700B58FB0CDE9A6
:1006400001310021059105497944CDE90310114696
:100650006846FFF79BFE0FB000BD0000E5FFFFFFFF
:100660000A6802F8010B0A607047D1E900239A4238
:1006700002D2531C0B6010707047754600F02CF8C6
:10068000AE4605006946534620F00700854618B07F
:1006900020B5FFF7D7FDBDE820404FF000064FF032
:1006A00000074FF000084FF0000B21F00701AC46A7
:1006B000ACE8C009ACE8C009ACE8C009ACE8C009C6
:1006C0008D46704710B50446AFF300802046BDE864
:1006D0001040FFF7A3BD000000487047B80000209D
:1006E00001491820ABBEFEE7260002007047FEE776
:1006F00070472DE9F0410446876D00F0A3F90646E6
:1007000094F835000025022806D08020606584F822
:1007100034500120BDE8F0812068016821F0160105
:1007200001602068416921F080014161206C08B9B5
:10073000A06C20B12068016821F0080101602068E8
:10074000016821F0010101600CE000F07BF9801BE1
:10075000052807D920206065032084F8350084F837
:100760003450D7E720680068C007EED194F85C10D9
:100770003F208840B860012084F8350084F8345068
:100780000020C7E790F83510022903D08021416589
:1007900001207047052180F835100068016821F0BC
:1007A00001010160002070472DE9F04FDFF8509201
:1007B000002301260325A9F1040B85B00F2709F1B9
:1007C000040AABF1040E12E1224606FA03F42240B9
:1007D0007ED091F804C00CF0030CBCF1010F02D0E4
:1007E000BCF1020F26D1D0F80880CDF800804FEA86
:1007F000430805FA08FCCDF81080DDF8008028EAEF
:100800000C08CDF80080D1F80CC0DDF810800CFA8F
:1008100008FCDDF800804CEA080CC0F808C0D0F8ED
:1008200004C02CEA040C0C79C4F300149C4044EA84
:100830000C0444600C79E443A40712D0C4684FEA66
:10084000430CCDF808C005FA0CFC24EA0C04D1F8DE
:100850000880DDF808C008FA0CF848EA0408C0F877
:100860000C800C7904F00304022C16D1DC0800EB98
:10087000840CCDF808C0DCF820C05C074FEAD468CF
:1008800007FA08F42CEA040C0C6904FA08F444EAA8
:100890000C04DDF808C0CCF8204004684FEA430897
:1008A00005FA08FC24EA0C0491F804C00CF0030CCF
:1008B0000CFA08FC4CEA040CC0F800C04C6814F4B4
:1008C000403F05D04F4CD4F800C04CF4804C00E0C1
:1008D0008CE0C4F800C0246823F0030C04F48044C6
:1008E0000094494C64440294D4F808484FEA837C4D
:1008F0004FEA1C7807FA08FC24EA0C04DFF80CC164
:10090000604502D14FF0000C39E0DFF804C16045CA
:1009100002D14FF0010C32E0DFF8F8C0604502D19F
:100920004FF0020C2BE0DFF8F0C0604502D14FF031
:10093000030C24E0DFF8E4C0604502D14FF0040C62
:100940001DE0DFF8DCC0604502D14FF0050C16E079
:10095000DFF8D0C0604502D14FF0060C0FE0DFF8A1
:10096000C8C0604502D14FF0070C08E0DFF8BCC0FA
:10097000604502D14FF0080C01E04FF0090C0CFA71
:1009800008FC4CEA040C029CC4F808C8D9F80040E2
:10099000CC46D1F8048094435FEAC82800D51443BC
:1009A000CCF80040DAF80040D446D1F804809443F3
:1009B0005FEA882800D51443CCF80040DBF80040FB
:1009C000DC46D1F8048094435FEA883800D51443AC
:1009D000CCF80040DEF80040F446D1F8048094439F
:1009E0005FEAC83800D51443CCF800405B1C0A68A5
:1009F0001446DA407FF4E8AE05B0BDE8F08F0000A1
:100A0000083C0140443802400030014000000240F0
:100A10000004024000080240000C024000100240A6
:100A20000014024000180240001C02400020024056
:100A30000069084000D0012070470AB18161704709
:100A40000904FBE701488068704700001800002097
:100A500002488168027811448160704718000020C4
:100A60000B4810B5016841F400710160016841F460
:100A700080610160016841F480710160032000F031
:100A80006FF80F2000F006F800F024F8002010BDE9
:100A9000003C024070B50D4D04464FF47A71287841
:100AA000B1FBF0F00A490968B1FBF0F000F010FB6F
:100AB00048B9102C07D200222146501E00F030F811
:100AC00000206C6070BD012070BD00001800002087
:100AD000240000200A4808B5016841F48041016003
:100AE000006800F4804000900548001F016841F054
:100AF00080510160006800F08050009008BD000047
:100B000044380240002809DB00F01F020121914017
:100B10004009800000F1E020C0F80011704700009B
:100B2000F0B40E4B1B680C46C3F30223C3F1070558
:100B3000042D00D90425191D072901D2002300E046
:100B4000DB1E012606FA05F1491E214099409E4010
:100B5000761E16403143F0BC01F0DDB90CED00E02B
:100B6000064900F0070208684FF6FF03184040EA04
:100B70000220034A10430860704700000CED00E0BB
:100B80000000FA052DE9F0470E46050063D0DFF8B6
:100B90001C81D8F80000F7B200F00F00B04207D275
:100BA00088F80070D8F8000000F00F00B04252D171
:100BB00028683F4C810712D5400703D5206840F4D0
:100BC000E05020602878000703D5206840F460409A
:100BD00020602068A96820F0F00008432060287891
:100BE000C0072BD0324968680839012810D009683D
:100BF000022810D0890700292DDA216821F003018D
:100C000001432160FFF71EFF814641F2883A0EE062
:100C100009688903EFE78901EDE700BFFFF712FFDD
:100C2000A0EB0901514502D90320BDE8F0872068F7
:100C3000696800F00C00B0EB810FEFD1D8F800101C
:100C4000404601F00F01B14207D90770006800F07B
:100C50000F00B04201D00120E7E72878400705D512
:100C60002068E96820F4E0500843206028780007F5
:100C700006D52068296920F4604040EAC100206060
:100C800000F04EF82168F02292FAA2F201F0F00191
:100C9000B2FA82F2D140074A515CC8400649086066
:100CA00006480068FFF7F6FE0020BEE7003C024061
:100CB00008380240EC200008240000201C0000201E
:100CC00008480949006809684FF4E05292FAA2F214
:100CD00001F4E051B2FA82F2D140044A515CC840BA
:100CE000704700002400002008380240FC20000863
:100CF00008480949006809684FF4604292FAA2F274
:100D000001F46041B2FA82F2D140044A515CC84019
:100D1000704700002400002008380240FC20000832
:100D2000154810B5006810F00C02144813D014498F
:100D3000042A0FD0082A0ED10F4C241F22682368E2
:100D400002F03F025B0207D52068C0F38810A0FBC9
:100D5000010106E0084610BD2168C1F38811A1FB1E
:100D600000010023FFF780FA2168C1F30141491C0B
:100D70004900B0FBF1F010BD083802400024F40037
:100D800040787D012DE9F84F04007BD0DFF828B3CF
:100D90002078ABF10406C007A6F1040536D0DBF8D5
:100DA00000105846C1F38101012907D00068C0F343
:100DB0008100022809D13068400206D528688003E6
:100DC00024D560680028E0D020E0BB492079891F45
:100DD0000870606868B1FFF735FE074605E000BFA0
:100DE000FFF730FEC01B642876D828688003F7D54B
:100DF0000CE0FFF727FE074605E000BFFFF722FEE5
:100E0000C01B6428F0D828688003F7D42078DFF866
:100E1000AC8280074FF0000944D5DBF8001058463B
:100E200011F00C0F4FF0F80A07D00068C0F38100F2
:100E3000022809D13068400206D42868800715D5F9
:100E4000E06801281ED111E0E068E0B10120C8F897
:100E50000000FFF7F7FD074605E000BFFFF7F2FDD2
:100E6000C01B0228C0D828688007F7D528689AFADE
:100E7000AAF22169B2FA82F220F0F8009140084308
:100E800028600FE013E1C8F80090FFF7DBFD07468C
:100E900005E000BFFFF7D6FDC01B02281CD828685C
:100EA0008007F7D42078000727D5DFF80CA2844804
:100EB00061690AF16C0A81B101210160FFF7C2FD8D
:100EC000074604E0FFF7BEFDC01B022804D8DAF88D
:100ED00000008007F6D510E082E0C0F80090FFF730
:100EE000B1FD074605E000BFFFF7ACFDC01B0228BF
:100EF00076D8DAF800008007F6D4207840075FD56E
:100F0000DFF8B4A100270AF1380ADAF80000C000BF
:100F10000BD4DAF8001041F08051CAF80010DAF86A
:100F20000000012700F0805000906648016841F4FD
:100F3000807101600168C90512D4016841F48071B3
:100F40000160FFF77FFD009006E000BFFFF77AFD2C
:100F50000099401A02287ED85A480068C005F5D585
:100F60005549207A68310870A06888B1FFF76AFD9A
:100F7000009007E0FFF766FD0099411A41F28830C2
:100F8000814268D84C48683000688007F2D510E08C
:100F9000FFF758FD009007E0FFF754FD0099411A54
:100FA00041F28830814256D8434868300068800753
:100FB000F2D42FB1DAF8001021F08051CAF80010F5
:100FC000A069B8B3DBF80010C1F38101022949D050
:100FD0000228C8F8609004D0FFF734FD04463DE0D5
:100FE00039E0FFF72FFD074605E000BFFFF72AFDB8
:100FF000C01B64282FD828688001F7D4D4E90701E2
:101000000843616A94F82C20890141EA026108438F
:10101000A16A2D4A490802EB0141084331682B4A75
:101020001140084330600120C8F86000FFF70AFD56
:10103000044606E03DE000BFFFF704FD001B642806
:1010400009D828688001F7D533E000BFFFF7FAFC24
:10105000001B642802D90320BDE8F88F28688001AE
:10106000F4D426E00128F7D03068E26900F480016A
:1010700091421CD1226A00F03F01914217D147F6FC
:10108000C071626A0140B1EB821F10D1A26A4FF0B9
:10109000FF3300F4403103EB5202B1EB024F06D1B3
:1010A00094F82C1000F07060B0EB016F01D00120BB
:1010B000D2E70020D0E70000083802400000474295
:1010C000800E4742007000400000FFFF0080BCF02F
:1010D00010B5401EB0F1807F01D3012010BD4FF04C
:1010E000E02460610F21601700F015FF0020A0616F
:1010F00007202061002010BD7047704770B590F840
:101100003C20012A32D0012480F83C40022280F8A1
:101110003D2003685A689D6822F070060A683243D1
:101120005A60134B02689A4214D0B2F1804F11D02A
:10113000104B9A420ED0104B9A420BD00F4B9A4252
:1011400008D00F4B9A4205D00E4B9A4202D00E4B5C
:101150009A4204D1496825F080031943916080F8D0
:101160003D40002180F83C10084670BD022070BD53
:10117000000001400004004000080040000C004056
:1011800000040140004001400018004010B5040078
:1011900003D094F83D0010B107E0012010BD0020FD
:1011A00084F83C00204600F01FF8022084F83D003F
:1011B000211D206800F078FC012084F8460084F8A6
:1011C0003E0084F83F0084F8400084F8410084F831
:1011D000420084F8430084F8440084F8450084F811
:1011E0003D00002010BD000008B500680B49884292
:1011F00012D10B48016841F0010101600068002232
:1012000000F00100009011461920FFF789FCBDE8AD
:1012100008401920FFF776BC08BD0000000001401F
:101220004438024070B5044690F83C00002501287F
:1012300017D0012684F83C60022084F83D00206825
:10124000826822F0770222F47F4282600868502888
:1012500038D00DDC20284FD005DC90B3102811D1F8
:101260004AE0022070BD302846D040280AD13BE039
:1012700060282FD070280DD0B0F5805F03D0B0F576
:10128000005F12D0012584F83D60002084F83C0006
:10129000284670BDCB68D1E90121206800F068FCC8
:1012A0002068816841F0770109E0CB68D1E901212C
:1012B000206800F05DFC2068816841F48041816015
:1012C000E1E719E0CA684968206800F063FC502132
:1012D000206806E0CA684968206800F06CFC60215C
:1012E000206800F04FFCCEE7CA684968206800F02B
:1012F00051FC40212068F4E7226801461046F0E7DF
:10130000704770B50446006801694FF00005C94395
:10131000890715D4C168C943890711D4E91E016141
:1013200001202077206880698007204602D0FFF7DF
:10133000E7FF04E000F098F8204600F096F82577E3
:1013400020680169C943490717D4C168C9434907DF
:1013500013D46FF0040101610220207720688069B6
:1013600010F4407F204602D0FFF7CAFF04E000F0EF
:101370007BF8204600F079F8257720680169C94399
:10138000090716D4C168C943090712D46FF00801D0
:101390000161042020772068C0698007204602D0C0
:1013A000FFF7AEFF04E000F05FF8204600F05DF8C4
:1013B000257720680169C943C90617D4C168C943A4
:1013C000C90613D46FF0100101610820207720684E
:1013D000C06910F4407F204602D0FFF791FF04E07F
:1013E00000F042F8204600F040F8257720680169B7
:1013F000C943C90708D1C168C943C90704D1891EB7
:101400000161204600F032F820680169C9430906ED
:1014100009D4C168C943090605D46FF08001016190
:101420002046FFF769FE20680169C943490609D4CF
:10143000C168C943490605D46FF0400101612046E7
:1014400000F015F820680169C94389060BD4C1680A
:10145000C943890607D46FF0200101612046BDE829
:101460007040FFF74ABE70BD7047704770477047C5
:1014700070477047F8B5016804460868CA684B6948
:1014800010F00F0F4FF0000559D003F0010602F4E1
:101490009077374365D0C10705D0D10503D5616C7E
:1014A00041F001016164410705D5D90703D0616CA2
:1014B00041F002016164810705D5D90703D0616C51
:1014C00041F004016164010707D502F020013143B6
:1014D00003D0616C41F008016164616C00293AD06D
:1014E000800604D5900602D5204600F0A5FB2068B2
:1014F0004069616CC0F38010090700D460B32046D6
:1015000000F073FB20684069400621D52068143044
:1015100050E8001F21F0400140E80012002AF5D1F8
:10152000E06BA8B16E490165E06BFFF72BF900286D
:1015300011D0E06B016D01B0BDE8F04008478306B3
:101540000FD593060DD52046BDE8F84000F074BBDA
:101550002046FFF78EFFF8BD2046FFF78AFF65643F
:10156000F8BD266B2023012E7DD1C6067BD5D6067D
:1015700079D508684868009048694FF0020640062F
:1015800041D5E16B086840680004000CE8D0A28DEA
:101590008242E5D9E085C869B0F5807F2DD020680A
:1015A0000C3050E8001F21F4807140E80012002A3E
:1015B000F5D12068143050E8001F21F0010140E807
:1015C0000012002AF5D12068143050E8001F21F0E5
:1015D000400140E80012002AF5D184F8423025632A
:1015E00020680C3050E8001F21F0100140E8001284
:1015F000002AF5D1E06BFFF77CF86663A08DE18DE2
:10160000401A81B22AE0A08DE18D401A81B2E08DAE
:101610000028A5D00029A3D022680C3252E8000F80
:1016200020F4907042E80007002FF5D120681430B4
:1016300050E8002F22F0010240E80027002FF5D1EA
:1016400084F84230256320680C3050E8002F22F0E7
:10165000100240E80023002BF5D166632046FFF717
:1016600007FFF8BDFFE705062BD5150629D594F829
:1016700041002128F5D1A068B0F5805F01D1206933
:10168000B0B1206A411C2162216800784860E08C7A
:10169000401E0004000CE084E3D12068C16821F002
:1016A0008001C1602068C16841F04001C160D8E795
:1016B000206A0088C0F308004860206A801C20620D
:1016C000E5E74006CDD55006CBD5CA68204622F0C6
:1016D0004002CA6084F8413000F0F9F8C1E7000028
:1016E000DB1B000870B5040004D094F8410000250D
:1016F00010B106E0012070BD84F84050204600F093
:1017000023F8242084F841002068C16821F40051A6
:10171000C160204600F00EFB2068016921F4904171
:1017200001612068416921F02A0141612068C16896
:1017300041F40051C1606564202084F8410084F8C0
:1017400042006563002070BD10B586B004461421C8
:101750006846FEF7AAFE18492068884229D1174832
:101760000021026842F010020260006800F01000E0
:10177000059012481438026842F0010202600068C5
:1017800000F0010005904FF4C06000900220CDE908
:101790000101032003900720049069460848FFF7E1
:1017A00003F8002211462520FFF7BAF92520FFF79C
:1017B000A9F906B010BD00000010014044380240F5
:1017C0000000024090F84230202B01D002207047E8
:1017D00021B11AB10023036300F03EBB0120704722
:1017E00070B50068104988421CD1104C2146A07A7F
:1017F0000A7804F10E050A280AD0A854521C227057
:10180000BDE87040094901220A310948FFF7DABFF3
:10181000064964230E31064800F00CF800202860C9
:101820002070EDE770BD00000010014000000020B6
:10183000700000202DE9F843044690F841001F464F
:1018400016460D46202802D00220BDE8F8837DB15F
:1018500076B100206064212084F84100FFF7F2F89F
:10186000A6848046E684A068B0F5805F02D003E0DD
:101870000120EAE7206910B12E4600250EE000267F
:101880000CE08021204600F002FBA0B9AEB116F8B2
:10189000010B21684860E08C401EE084E08C4346E8
:1018A0004FF0000200970028EBD14FF04001204696
:1018B00000F0EDFA30B10320C7E735F8020BC0F3B2
:1018C0000800E6E7202084F841000020BDE77047CB
:1018D000FEE70000F0B587B014216846FEF7E5FD8D
:1018E00036480024016841F001010160016801F0FF
:1018F00001010591016841F002010160016801F0F8
:1019000002010591016841F010010160016801F0D8
:1019100010010591016841F008010160016801F0C2
:1019200008010591016841F0040101600068244E3E
:1019300000F004000590002280213046FFF77DF87A
:10194000204F002205213846FFF777F880200090CD
:101950000125CDE90154694630460394FEF724FF82
:1019600005200090CDE90154694638460394FEF7FE
:101970001BFFA803CDE90004694613480294FEF753
:1019800013FF4FF46050CDE9000469460F480294FC
:10199000FEF70AFF4FF4E070CDE9000469460C48F9
:1019A0000294FEF701FFE803CDE9000469463046E2
:1019B0000294FEF7F9FE07B0F0BD00003038024097
:1019C000000002400004024000100240000C0240EF
:1019D0000008024010B586B0002417480094019416
:1019E00002940394049413490594016041F63F71F5
:1019F000C0E90114F921C0E9031444618461FFF7CF
:101A0000C5FB08B172B6FEE74FF4805000906946FE
:101A10000948FFF707FC08B172B6FEE7049404A971
:101A200005480594FFF76AFB002801D072B6FEE76F
:101A300006B010BD0000014028000020FEE7FEE7D0
:101A400070477047FFF704B810B592B03021684670
:101A5000FEF72BFD14210CA8FEF727FD02200090B5
:101A60000120039010200024049006946846FFF79C
:101A700089F908B172B6FEE70F20CDE90C040E9487
:101A80000F9400210CA81094FFF77CF8002801D0D7
:101A900072B6FEE712B010BD704700000148FFF7B4
:101AA00030BC000028000020F0B50268254C264D0F
:101AB000264E274F274B4FF0804CA04209D060455F
:101AC00007D0A84205D0B04203D0B84201D0984216
:101AD00004D122F0700E4A6842EA0E02A0421BD0E6
:101AE000604519D0A84217D0B04215D0B84213D0E3
:101AF000984211D0184DA8420ED0184DA8420BD0D4
:101B0000174DA84208D0174DA84205D0164DA8423F
:101B100002D0164DA84203D122F44075CA682A4368
:101B20004D6922F080022A4302608A68C2620A6814
:101B30008262A04201D0984201D10969016301216A
:101B40004161F0BD00000140000400400008004079
:101B5000000C0040000401400040014000440140EE
:101B60000048014000180040001C004000200040D8
:101B700010B5846842EA032224F47F440A432243D6
:101B8000826010BD826822F070020A4342F00701B1
:101B90008160704710B5036A046A24F0010404628E
:101BA000846924F0F00444EA021423F00A020A4390
:101BB0008461026210BD10B5036A046A24F0100447
:101BC0000462846923F0A00324F4704444EA0232DE
:101BD00043EA01118261016210BD10B5806B0021E2
:101BE000C185C184FFF745FC10BD01680C3151E887
:101BF000002F22F4907241E80023002BF5D10168F8
:101C0000143151E8002F22F0010241E80023002B9B
:101C1000F5D1016B012909D101680C3151E8002F80
:101C200022F0100241E80023002BF5D1202180F89A
:101C3000421000210163704708B590F84210222934
:101C400001D0022008BD82684FF480539A4201D12E
:101C5000016921B1816A9A421BD04AB10AE0026847
:101C6000816A5268C2F308020A80816A891C08E00E
:101C7000026972B10268526802F07F020A70816ADA
:101C8000491C8162C18D491E0904090CC18503D01C
:101C90001BE002685268F1E70168CA6822F020027E
:101CA000CA600168CA6822F48072CA6001684A6921
:101CB00022F001024A61202180F842100021416394
:101CC000026B012A03D0FFF78BFD002008BD0163E2
:101CD00001680C3151E8002F22F0100241E8002386
:101CE000002BF5D101680A68D20602D50A68496856
:101CF0000091818DFFF7BCFBE7E7000008B50A28DB
:101D0000034601DA08A200E008A204216846FEF7B3
:101D100023FB6846FEF7AAFB82B24FF0FF33694609
:101D20000348FFF787FD08BD3025640025640000E7
:101D3000700000202DE9F041044600680169E26866
:101D400021F44051114301612169A068E26908430F
:101D50006169114322680843D16849F20C639943D1
:101D60000143D16020684169A26921F440711143A7
:101D7000416137492068884202D03649884202D101
:101D8000FEF7B6FF01E0FEF79BFF0246E369642021
:101D90003221B3F5004F02EBC20303EB021362687A
:101DA0002BD09200B3FBF2F5B5FBF0F5B3FBF2F6E6
:101DB0006FF018077D4306EB8505B3FBF2F601EBE8
:101DC0000515B5FBF0F5B6FBF0F605F0F00505EBF3
:101DD0000615B3FBF2F6B3FBF2F2B2FBF0F27A4374
:101DE00006EB820201EB0211B1FBF0F000F00F00F4
:101DF000216828448860BDE8F0815200B3FBF2F608
:101E0000B6FBF0F6B3FBF2F7B3FBF2F56FF0180C8C
:101E100006FB0CF607EB860601EBC606B5FBF0F5F4
:101E2000B6FBF0F62D0106F0F80605EB4605B3FB10
:101E3000F2F6B3FBF2F2B2FBF0F202FB0CF206EBAD
:101E4000820201EBC201B1FBF0F000F00700CFE726
:101E5000001001400014014081628285C28500218A
:101E60004164222180F84210016921B10168CA68E9
:101E700042F48072CA6001684A6942F001024A6114
:101E80000068C16841F02001C160002070472DE961
:101E9000F041984617460E460446069D27E0681C0A
:101EA00025D02DB1FEF7CEFDA0EB0800A8421ED92B
:101EB00020680C3050E8001F21F4D07140E8001277
:101EC000002AF5D12068143050E8001F21F00101EC
:101ED00040E80012002AF5D1202084F8410084F85F
:101EE0004200002084F840000320BDE8F081206813
:101EF000006836EA000004D00020B842CFD00020AD
:101F0000F3E70120F9E700000148FFF7B3BA00004A
:101F100070000020FEE70907090E002804DB00F12D
:101F2000E02080F80014704700F00F0000F1E0207E
:101F300080F8141D70470000FEF792FDFFF784FD46
:101F4000FFF7C8FC624861494FF0000901604FF497
:101F5000E131C0E901190C22C0F80C90C0E90492EB
:101F6000C0F81890C0F81C90FFF7BCFB08B172B61F
:101F7000FEE7FFF72FFD012256495548FFF722FCE7
:101F8000554C012211462046FEF757FD012204213F
:101F90002046FEF752FD514C012280212046FEF7DB
:101FA0004CFDA0464B4C4E4D4E4F4FF4804A4FF4E3
:101FB000807B0A3C4FF400612846FEF739FDA07093
:101FC00040213846FEF734FDE0705646514638460B
:101FD000FEF72EFD207131464348FEF729FD607162
:101FE0005E4659464046FEF723FDA071314638460D
:101FF000FEF71EFDE0714FF400512846FEF718FD74
:1020000020724FF480512846FEF712FD60720122C3
:1020100030492F48FFF7D6FBA078E179084309D172
:10202000002201212C48FEF708FD002280214046B5
:10203000FEF703FDE078B8B9A079D0B10020E179CE
:10204000C9B1002108430FD0234E0122114630466A
:10205000FEF7F3FC002204213046FEF7EEFC0122DD
:1020600080214046FEF7E9FC2079E179084304D05D
:1020700008E00120E3E70121E4E7012211461648C8
:10208000FEF7DBFC6079E179084304D101221146B7
:102090001148FEF7D2FC607A012807D1E07928B90F
:1020A0006078401CC0B26070FFF728FE0949083113
:1020B000081FFEF721FA00287FF47CAF012284F884
:1020C000019011460448FEF7B8FC73E70010014088
:1020D000700000200A0000200004024000000240BE
:1020E000000C024000080240001002400000000006
:1020F00000000000010203040607080900000000B8
:102100000102030424210008000000202800000030
:10211000C00100084C21000828000020F006000043
:10212000DC010008000000000000000000000000CA
:1021300000000000000073746F70000001000000D8
:0C21400010000000000000000024F4006B
:040000050800018569
:00000001FF
