:020000040800F2
:10000000C006002021020008E1100008DD100008F1
:10001000DF10000817040008CD13000800000000DE
:10002000000000000000000000000000E5100008D3
:100030001904000800000000E3100008E7100008A1
:100040003B0200083B0200083B0200083B0200089C
:100050003B0200083B0200083B0200083B0200088C
:100060003B0200083B0200083B0200083B0200087C
:100070003B0200083B0200083B0200083B0200086C
:100080003B0200083B0200083B0200083B0200085C
:100090003B0200083B0200083B0200083B0200084C
:1000A0003B0200083B0200083B0200083B0200083C
:1000B0003B0200083B0200083B0200083B0200082C
:1000C0003B0200083B0200083B0200083B0200081C
:1000D0003B020008C11300083B0200083B02000875
:1000E0003B0200083B0200083B0200083B020008FC
:1000F0003B0200083B0200083B0200083B020008EC
:100100003B0200083B0200083B0200083B020008DB
:100110003B0200083B0200083B0200083B020008CB
:100120003B0200083B0200083B0200083B020008BB
:100130003B02000800000000000000003B02000835
:100140003B0200083B0200083B0200083B0200089B
:100150003B0200083B0200083B0200083B0200088B
:100160003B0200083B0200083B0200083B0200087B
:100170003B0200083B0200080000000000000000F5
:100180003B02000800F002F800F03AF80AA090E8FC
:10019000000C82448344AAF10107DA4501D100F042
:1001A0002FF8AFF2090EBAE80F0013F0010F18BFD5
:1001B000FB1A43F00103184718140000381400001C
:1001C000103A24BF78C878C1FAD8520724BF30C883
:1001D00030C144BF04680C60704700000023002455
:1001E00000250026103A28BF78C1FBD8520728BF47
:1001F00030C148BF0B6070471FB51FBD10B510BDA3
:1002000000F0D0F81146FFF7F7FF01F0F3F800F027
:10021000EEF803B4FFF7F2FF03BC00F0F5F80000BE
:100220000948804709480047FEE7FEE7FEE7FEE78A
:10023000FEE7FEE7FEE7FEE7FEE7FEE704480549C6
:10024000054A064B7047000043110008850100086D
:10025000C0000020C0060020C0020020C002002014
:1002600053EA020C00F069802DE9F04B4FF00006D4
:10027000002B1FBFB3FA83F503FA05F424FA05F641
:100280005E4012BF1643B2FA82F502FA05F4C5F1D8
:1002900020051EBF22FA05FC44EA0C04203556EA6C
:1002A000044C4FEA144418BF641C4FF000084FF090
:1002B0000009904271EB030C39D3002919BFB1FA40
:1002C00081F701FA07F6B0FA80F700FA07F6C7F1EE
:1002D00020071EBF20FA07FC46EA0C062037B6FBB3
:1002E000F4FCA7EB0507103F07F01F0BCBF120062E
:1002F0002CFA06F60CFA0BFB44BFB3460026202F5F
:10030000A4BF5E464FF0000B5BEA060C08BF4FF03F
:10031000010B19EB0B0948EB0608ABFB027C06FB53
:1003200002CC0BFB03CCC01B71EB0C01C1E70B46ED
:10033000024641464846BDE8F08B13B5084318BF56
:100340004FF0FF300146AFF30080BDE81C4070471E
:100350004FF0000200B5134694469646203922BF5E
:10036000A0E80C50A0E80C50B1F12001BFF4F7AFA9
:10037000090728BFA0E80C5048BF0CC05DF804EB8B
:10038000890028BF40F8042B08BF704748BF20F8F9
:10039000022B11F0804F18BF00F8012B70477047F7
:1003A00070477047754600F02BF8AE460500694669
:1003B000534620F00700854618B020B5FFF73EFFF2
:1003C000BDE820404FF000064FF000074FF0000856
:1003D0004FF0000BAC46ACE8C009ACE8C009ACE893
:1003E000C009ACE8C00921F007018D46704710B57F
:1003F0000446AFF300802046BDE81040FFF709BF78
:10040000004870471000002001491820ABBEFEE7ED
:10041000260002007047FEE7704770B5866D0446FF
:1004200000F036F9054694F8350002281ED1206800
:10043000216C026822F016020260426922F08002FA
:10044000426109B9A16C19B1016821F0080101608C
:10045000016821F0010101600068C0070AD000F0C6
:1004600017F9401B05280FD82068F5E78020606544
:1004700001200EE0E06D3F2101FA00F0B0600120A4
:1004800084F83500002004E020206065032084F813
:100490003500002184F8341070BD90F83510022921
:1004A00009D1052180F835100068016821F00101AB
:1004B00001600020704780214165012070470000E5
:1004C000BCB5019000F0E4F8044693480078019D23
:1004D000691C18BF054400F0DBF8001BA842FAD3E2
:1004E000BCBD00BF2DE9FC4F604A09244FF0000A53
:1004F0004FF0000990425E4A08BF082402444FEAC8
:10050000B223082B38BF4FEAB224002200940F68B0
:1005100037FA02F308BFBDE8FC8F0123934017EAC6
:10052000030B00F09C80D1F8048008F0030CACF1C0
:100530000106012E15D8032404FA09F68468CD6853
:100540006FEA060EB44305FA09F52C438460C8F33C
:1005500000144568944025EA030323434360530095
:100560000CE00323BCF1030F03FA09F36FEA030E57
:100570004B4603D14B464FF0030C22E0C4688D6814
:10058000BCF1020F04EA0E0405FA03F544EA05047F
:10059000C46016D10AF01C040F2505FA04FC6FF0A4
:1005A000030505EA52060644356A25EA0C0C0D6976
:1005B00005FA04F444EA0C043462D1F8048008F02B
:1005C000030C04680CFA03F318F4403F04EA0E0429
:1005D00043EA0403036042D00023284C254F22F055
:1005E0000305019323683D4443F48043236023685B
:1005F0000F2403F4804301930AF00C03019E9C40F6
:100600001F4EB446AE5926EA0404009E06FA03F3D0
:10061000234345F80C30BB684D6843EA0B04EE02F7
:1006200058BF23EA0B04144BBC60AE029C461B6807
:1006300043EA0B0458BF23EA0B04CCF80040AE0396
:100640007B6843EA0B0458BF23EA0B047C60ED038C
:100650003B6843EA0B0458BF23EA0B043C600AF1F1
:10066000040A09F10209013251E700BF00200240EB
:100670000000FEBF003C01400C3C014044380240F9
:1006800008FCFFFF002A08BF0904816170470000D1
:1006900005480068704700BF1F48034900780A6892
:1006A00010440860704700BFBC00002080B50B48B4
:1006B000016841F400710160016841F480610160EA
:1006C000016841F480710160032000F06DF80F2093
:1006D00000F006F800F022F8002080BD003C024047
:1006E00070B50D4E04464FF47A713078B1FBF0F0DE
:1006F00088490968B1FBF0F000F0B6FA01250F2C2B
:1007000008D838B94FF0FF3021460022002500F00C
:100710002FF87460284670BD0000002082B00020D1
:100720000B4901904A6842F480424A604A6802F4E8
:1007300080420192019A0090086840F08050086061
:10074000086800F080500090009802B0704700BF29
:1007500040380240002808D400F01F01012240095F
:1007600002FA01F1014A42F82010704700E100E06E
:1007700070B5134B4FF0FF351B68C3F30223DC1E2B
:1007800083F0070338BF0024042B28BF042305FA95
:1007900004F605FA03F3B2439943A1401143BDE8BF
:1007A000704000F015BE00BF05494FF6FF030A6810
:1007B0001A4060F30A22034810430860704700BFE4
:1007C0000CED00E00000FA052DE9F04100285FD0B3
:1007D000434B04460D46D3F8000400F00F00884256
:1007E00007D283F80054D3F8000400F00F00A842A9
:1007F0004ED12068810711D5410703D5996841F48E
:10080000E0519960010703D5996841F4604199600E
:10081000A1689A6822F0F00211439960C00731D1B3
:10082000D3F8000400F00F00A84207D983F8005461
:10083000D3F8000400F00F00A84229D12068410736
:1008400005D5E1689A6822F4E052114399600007E7
:1008500006D52069996821F4604141EAC00098609A
:100860001C4600F05DF8A1681E4AC1F30311515CFB
:10087000C840284908601C480068FFF731FF002085
:10088000BDE8F0816068012805D1196889030AD4A0
:100890000120BDE8F0811968022802D18901F7D54D
:1008A00001E08907F4D59968984621F003010843CF
:1008B0009860FFF7EDFE064641F288376068D8F889
:1008C0000810434601F00C01B1EB800FA8D0FFF7F0
:1008D000DFFE801BB842F1D90320BDE8F08100BFE4
:1008E00000380240B81500080400002009480A49F1
:1008F0000A4A00680968C1F38221515CC840704708
:1009000004480549054A00680968C1F34231515C51
:10091000C84070470800002008380240C815000889
:1009200010B5134C606800F00C00082804D00428AF
:1009300014BF1048104810BD2268206800234002F0
:1009400002F03F020C485CBF42F20040C0F2F400EB
:100950002168C1F38811A0FB0101FFF781FC216828
:100960000222C1F3014102EB4101B0FBF1F010BDE5
:10097000043802400024F40040787D012DE9FC4158
:10098000002800F0858004460078B34EC0072BD0C5
:10099000B06800F00C00042805D13068800323D52E
:1009A000606808BB74E0B06800F00C00082802D151
:1009B00070684002F1D46068B0706768FFF768FE45
:1009C000054677B1306880030ED4FFF761FE401B07
:1009D0006428F7D9D2E0FFF75BFE411B03206429AE
:1009E00054D830688003F6D4207880071AD5B068D0
:1009F00010F00C0F09D0B06800F00C00082840F08F
:100A000087807068400200F183803068800702D5DB
:100A1000E06801283CD12069316821F0F80141EA01
:100A2000C00030602078000735D42078400745D4D6
:100A3000A76957B3B06800F00C00082840F0A18007
:100A4000012F25D0E169706800F480028A421FD12D
:100A5000216A00F03F028A421AD147F6C071626AE9
:100A60000140B1EB821F13D1A16A4FF6FF72C90397
:100A7000914300F44032A1F580318A4208D1E16A05
:100A800000F07060B0EB016F02D10020BDE8FC8186
:100A90000120BDE8FC816169704800295FD0012117
:100AA000C0F8801EFFF7F4FD0546706F8007BCD4C8
:100AB000FFF7EEFD401B0228F7D95FE0306C4FF0E6
:100AC0000008C0000CD4CDF804804FF00108306C51
:100AD00040F080503064306C00F0805001900198FC
:100AE0005F4F386840F4807038603868C00522D4A1
:100AF000386840F480703860FFF7CAFD05463868F2
:100B0000C00518D4FFF7C4FD401B0228F7D935E013
:100B1000E068002854D0514801210160FFF7B8FD7A
:100B20000546306880073FF576AFFFF7B1FD401B03
:100B30000228F6D922E0A06886F87000A768FFF7BF
:100B4000A7FD0546002F4CD041F28837306F800753
:100B500053D4FFF79DFD401BB842F7D90EE00021AA
:100B6000C0F8801EFFF794FD0546706F80077FF583
:100B70005CAFFFF78DFD401B0228F6D90320BDE8CE
:100B8000FC813649002088460866FFF781FD05464E
:100B9000022F0AD147463068800137D5FFF778FD2C
:100BA000411B03206429F6D970E7306880017FF586
:100BB0006CAFFFF76DFD411B03206429F5D965E794
:100BC000264800210160FFF763FD05463068800775
:100BD0007FF528AFFFF75CFD411B03200229F5D903
:100BE00054E741F28837306F800706D5FFF750FD94
:100BF000411B0320B942F6D948E7B8F1000F3FF492
:100C000017AF306C20F08050306411E770681549E0
:100C100004F11C05E46A08402ECD0843E9031043A3
:100C20004FF6FF7240EA8310914340EA0460A1F559
:100C300080310843706001203866FFF729FD0446C3
:100C4000306880013FF521AFFFF722FD011B032033
:100C50006429F5D91AE700BF003802400000474276
:100C6000007000400080BCF0411E0020B0EB116F0E
:100C70001CBF01207047044AF023516003490B70E8
:100C8000072190601160704710E000E023ED00E064
:100C900070477047F8B5044600680168C268466945
:100CA00001F02F0502F02003202D05D123B12046AD
:100CB000BDE8F84000F073BA5FEA017E08D006F0A4
:100CC000010612F4907F86F0010752D1002F50D018
:100CD0001140CA06226B3BD5012A39D1002100916F
:100CE000016800914168009100994169490600F14D
:100CF0008E80E18DA28DE38D13B1511A0A0401D1CA
:100D0000F8BD206850E8030F226820F4907042E894
:100D10000303002BF5D1206850E8050F226820F06E
:100D2000010042E80503002BF5D1202084F84200A1
:100D300000202063206850E8030F226820F0100094
:100D400042E80303002BF5D1022089B26063A4E0DE
:100D50000A0600F1A7804906D2D5C16821F04001FA
:100D6000C160202084F841002046BDE8F84000F032
:100D7000B4B9CD0718BF12F4807503D0656C45F087
:100D80000105656401F004054FF0010C8CEA95053E
:100D90003D4303D1656C45F00205656401F0020531
:100DA0008CEA55053D4303D1656C45F00405656447
:100DB000334318BF0123BEF1000F04D51BB1636C90
:100DC00043F008036364636C002B99D011408906DB
:100DD00003D5204600F0E3F920684069616C00F01B
:100DE000400001F0080140186DD0204600F0B0F935
:100DF0002068416949067AD550E8050F216820F03E
:100E0000400041E80502002A63D02068F4E7E26B65
:100E100011684B689DB2002D3FF472AFA18D8D42D9
:100E2000BFF46EAFE385D269B2F5807F30D050E871
:100E3000030F216820F4807041E803020AB12068A2
:100E4000F5E7206850E8050F216820F0010041E82F
:100E50000502002AF5D1206850E8050F216820F02E
:100E6000400041E80502002AF5D1202084F8420024
:100E700000202063206850E8030F216820F0100054
:100E800041E80302002AF5D1E06BFFF7C6FAA18D15
:100E900002206063E08D081A81B22046BDE8F84068
:100EA000FFF7F6BE94F8411021297FF429AFA1681D
:100EB000B1F5805F01D12169F1B1216A4A1C22623A
:100EC000097841601FE02046FFF7E3FE00206064E0
:100ED000F8BDE06B58B113490165FFF7DEFA002851
:100EE0003FF40EAFE06B016DBDE8F84008472046C7
:100EF000BDE8F840FFF7CDBE216A31F8022B6FF351
:100F00005F2221624260E18C0139E18409047FF4AF
:100F1000F7AEC16821F08001C160C16841F04001B5
:100F2000C160F8BD4511000858B310B5044690F8EB
:100F3000410028B9002084F84000204600F024F841
:100F4000242084F841002068C16821F40051C16068
:100F5000204600F087F92068016921F49041016181
:100F6000416921F02A014161C16841F40051C16029
:100F700000202021606484F8411084F842106063EE
:100F800010BD01207047000010B586B0044601A8CE
:100F90001421FFF7DDF92168184881422CD1002186
:100FA000174A00F570400091536943F010035361F4
:100FB000536903F010030093009B0091136843F002
:100FC00001031360126802F00102009207220592E9
:100FD0000322CDE90312022102914FF4C061019175
:100FE000009901A9FFF77EFA252000210022FFF7D2
:100FF000BFFB2520FFF7AEFB06B010BD001001407F
:101000003038024010B590F84230202B07D101242F
:1010100031B12AB10024046300F082F900E0022417
:10102000204610BD02490122081D0131FFF7EABF29
:10103000700000202DE9F843044690F84100202874
:101040001CBF0220BDE8F88388460120002942D059
:101050001746002A3FD04FF0000921201D46C4F852
:10106000449084F84100FFF713FBE7840646A78409
:10107000A068B0F5805F05D12769002F0CBFC1467D
:10108000474600E04746E08CB8B120468021324612
:101090002B4600F05EF9B8B927B117F8010B2168AB
:1010A000486006E039F8021B206800276FF35F21D3
:1010B0004160E08C0138E084E5E72046402132467B
:1010C0002B4600F046F910B10320BDE8F88320203C
:1010D00084F841000020BDE8F8837047FEE7FEE792
:1010E000FEE770477047FFF7D7BAB0B592B006ACCD
:1010F0002C21201DFFF72CF901A81421FFF728F956
:10110000102000250A9001200C95099002200690DD
:101110002046FFF733FC18B1EFF3108072B6FEE7FC
:101120000F2000210295019001A8CDE903550595F6
:10113000FFF74AFB18B1EFF3108072B6FEE712B06A
:10114000B0BD7047806B0021C185C184FFF7A1BD90
:10115000016851E8031F026821F4907142E803130B
:10116000002BF5D1016851E8051F026821F001014B
:1011700042E80513002BF5D1016B012909D1016863
:1011800051E8031F026821F0100142E80313002B0D
:10119000F5D1202180F8421000210163704781B011
:1011A00090F84210222920D18368B3F5805F08D1DE
:1011B0000169002949D000F128010A6803685B68C9
:1011C0000AE0014651F8282F13B90369002BF5D026
:1011D00003685B6803F07F0313700A6801320A60DA
:1011E000C18D0139C185090401D001B07047016882
:1011F000CA6822F02002CA60CA6822F48072CA60FB
:101200004A6922F001024A61202280F8422000222D
:101210004263036B012B21D1026351E8031F026873
:1012200021F0100142E803130168002BF5D10A6890
:10123000D20606D5002200920A6800924968009101
:101240000099818D01B0FFF723BD0168826A49686A
:101250006FF35F2122F8021B8262C1E701B0FFF742
:10126000E1BE0000B0B50446006804F108030ECBEF
:10127000056925F4405519432A4349F20C6502617A
:10128000C26863691943E369AA4319431143C16002
:101290004169A26921F44071114341611F4940F441
:1012A0008060884202D1FFF72BFB01E0FFF71EFBB5
:1012B0001921E26948436168B2F5004F15D1490030
:1012C0006FF06303B0FBF1F06421B0FBF1F202FBBD
:1012D0000300322303EBC000B0FBF1F14FF4F870D0
:1012E00000EA410001F0070112E089006FF063039A
:1012F000B0FBF1F06421B0FBF1F202FB03003223FA
:1013000003EB0010B0FBF1F101F0F00001F00F0170
:1013100000EB0210084321688860B0BD0014014052
:101320000023C285436481622221828580F84210B5
:101330000168006918B1C86840F48070C8604869E5
:1013400040F001004861C86840F02000C8600020FB
:1013500070472DE9F0411D4690460F4604465E1C3D
:10136000206800683840B84227D0002EF8D02DB150
:10137000FFF78EF9A0EB0800A842F1D9206850E8E9
:10138000030F216820F4D07041E80302002AF5D150
:10139000206850E8050F216820F0010041E80502AF
:1013A000002AF5D12020002184F8410084F8401063
:1013B00084F842000320BDE8F0810020BDE8F08100
:1013C0000148FFF767BC00BF74000020FEE7000083
:1013D00010B5074C00F00F03044AB0F1FF3F23445F
:1013E000C8BF83180801187010BD00BF00E400E0FA
:1013F00014ED00E086B069480122041D411C20461E
:10140000FFF700FEFFF752F9FFF76FFE0026644872
:10141000644FDFF894A100224FF0800B05960096F0
:10142000016807F5704541F001010160016801F0B4
:101430000101009100990096016841F002010160EC
:10144000016801F00201009100990096016841F0E5
:1014500010010160016801F01001009100990096EF
:10146000016841F008010160016801F00801009184
:1014700000990096016841F0040101608021006834
:1014800000F00400009000982846D04707F5744803
:1014900043F2040100224046D04707F580374FF45D
:1014A000F06100223846D047012004960DF1040A6D
:1014B0004FF00109CDE90200CDF804B0DFF8ECB03F
:1014C00028465146D84704200496CDE90299514652
:1014D00001904046D8474FF4F0600496CDE902965B
:1014E000514601903846D8474FF48040CDE9026616
:1014F000514601903846D8474FF440500496CDE904
:101500000296514601904046D847264F4FF400605E
:10151000CDE902665146019007F57C452846D8473B
:1015200002205146CDE902604FF400500190284658
:10153000D847C020CDE902665146019007F57840B2
:10154000D8478020CDE90269514601902846D84706
:101550000820CDE90269514601904046D8470F4A1C
:101560004FF416510C20C2E90171C2E90366C2E9C9
:1015700005602046C2E90766FFF7D6FC18B1EFF315
:10158000108072B6FEE70AA520462946062264238B
:10159000FFF750FD6420FEF793FFF5E77000002091
:1015A000303802400010014085060008E5040008BC
:1015B0004E677579656E00000000000000000000B5
:1015C00001020304060708090000000001020304E9
:1015D000F01500080000002010000000C001000805
:1015E0000016000810000020B0060000DC01000812
:1015F00001000000100000000024F40000000000C2
:040000050800018569
:00000001FF
