:020000040800F2
:1000000018070020D5010008D91E0008671D000848
:10001000D51E00084B060008592400080000000007
:10002000000000000000000000000000091F0008A0
:100030004F06000800000000DD1E00080B1F00082E
:10004000EF010008EF010008EF010008EF010008D0
:10005000EF010008EF010008EF010008EF010008C0
:10006000EF010008EF010008EF010008EF010008B0
:10007000EF010008EF010008EF010008EF010008A0
:10008000EF010008EF010008EF010008EF01000890
:10009000EF010008EF010008EF010008EF01000880
:1000A000EF010008EF010008EF010008EF01000870
:1000B000651F0008EF010008EF010008EF010008CC
:1000C000EF010008EF010008EF010008EF01000850
:1000D000EF01000849240008EF010008EF010008C3
:1000E000EF010008EF010008EF010008EF01000830
:1000F000EF010008EF010008EF010008EF01000820
:10010000EF010008EF010008EF010008EF0100080F
:10011000EF010008EF010008EF010008EF010008FF
:10012000EF010008EF010008EF010008EF010008EF
:1001300000F002F800F03FF80AA090E8000C8244BA
:100140008344AAF10107DA4501D100F034F8AFF297
:10015000090EBAE80F0013F0010F18BFFB1A43F0A5
:1001600001031847F826000018270000103A24BFA2
:1001700078C878C1FAD8520724BF30C830C144BF0C
:1001800004680C607047000000230024002500264E
:10019000103A28BF78C1FBD8520728BF30C148BFEA
:1001A0000B607047642900F07780002070471FB50E
:1001B0001FBD10B510BD00F00EFA1146FFF7F7FF96
:1001C00002F0FAF900F02CFA03B4FFF7F2FF03BCD7
:1001D00000F034FA0948804709480047FEE7FEE787
:1001E000FEE7FEE7FEE7FEE7FEE7FEE7FEE7FEE7E7
:1001F00004480549054A064B70470000631F000884
:100200003101000818010020180700201803002001
:10021000180300200FB41CB50C0007AA009001D0F1
:100220002044401E074B7B4469460190069800F02D
:10023000B2F9002C03D06946002000F0BFF91CBCC5
:100240005DF814FB9D03000070B5044685690068E5
:10025000C10601D5302600E02026C00707D070BDBA
:10026000D4E9012130469047206A401C20626D1E6F
:10027000F6D570BD70B5044685690078C00707D112
:1002800070BDD4E9012120209047206A401C2062E3
:100290006D1EF6D570BD00002DE9F0410646002424
:1002A00010687529314616A510D0AFF300800028DC
:1002B00002DA404213A507E031688A0701D512A58A
:1002C00002E0490704D511A5012401E0AFF3008045
:1002D00000210A2206F1240709E0B0FBF2FCB0FB82
:1002E000F2F302FB1C00303078541846491C0028F9
:1002F000F3D123462A463046BDE8F04100F0EDB880
:10030000000000002D0000002B0000002000000075
:100310002DE9F05F894604464FF0000ADFF824B16A
:10032000FB44C0F820A02046E168884700287DD023
:10033000252806D0D4E901219047206A401C20627C
:10034000F1E700255F462046E168884720280646F9
:1003500007DB312E05D2B81910F8200C08B105437F
:10036000F1E7A80701D525F00405C4F81CA0002773
:10037000C4F818A02A2E09D0304602F08BF838B302
:1003800004EB8708303EC8F8186019E059F8041BE0
:10039000204604EB87029161E1688847012F0646F9
:1003A00018D1E069002820DA25F020051DE0D8F8F2
:1003B000180000EB800006EB40003038C8F8180049
:1003C0002046E1688847064602F064F80028EED12E
:1003D000012F0AD02E2E08D12046E16888477F1CC5
:1003E0000646022F45F02005C4DBA069002803DA89
:1003F000404245F00105A061E80701D025F0100555
:10040000A6B1A6F14100192802D8203645F40065AE
:100410004A463146204625604D46FFF7C3FE60B18F
:10042000012807D0ED1D25F0070000E007E000F1EE
:10043000080978E705F1040975E730467AE7206A8C
:10044000BDE8F09F2625000010B5431C02E010F81F
:10045000011B71B18107FAD14FF0013202C88C1A29
:100460008C4314EAC211F9D0C01A0A0603D0C01E88
:1004700010BDC01A10BD0A0401D0801E10BD0902B3
:10048000FCD0401E10BD4FF0000200B5134694464C
:100490009646203922BFA0E80C50A0E80C50B1F1DC
:1004A0002001BFF4F7AF090728BFA0E80C5048BFF0
:1004B0000CC05DF804EB890028BF40F8042B08BF8E
:1004C000704748BF20F8022B11F0804F18BF00F88A
:1004D000012B70477047704770472DE9F0470D4674
:1004E00099469246044600F124080168880604D51E
:1004F000E06921F01001216000E00120A84201DD47
:10050000471B00E00027A1697A1902EB0900081ACD
:10051000A0612078C00602D42046FFF795FE002691
:1005200008E0D4E901211AF806009047206A401C2F
:10053000761C20624E45F4DB2078C0060AD52046A2
:10054000FFF782FE06E0D4E9012130209047206ABF
:10055000401C2062381EA7F10107F4DC07E0D4E953
:10056000012118F805009047206A401C2062281ECF
:10057000A5F10105F3DC2046FFF77CFE207800069C
:1005800002D50220BDE8F0870120FBE701694A1C83
:1005900002610878704700B58FB0CDE901310021C4
:1005A000059105497944CDE9031011466846FFF7E6
:1005B000AFFE0FB000BD0000E5FFFFFF0A6802F8C4
:1005C000010B0A607047D1E900239A4202D2531C02
:1005D0000B6010707047754600F02CF8AE460500B1
:1005E0006946534620F00700854618B020B5FFF74E
:1005F000FFFDBDE820404FF000064FF000074FF030
:1006000000084FF0000B21F00701AC46ACE8C00930
:10061000ACE8C009ACE8C009ACE8C0098D46704739
:1006200010B50446AFF300802046BDE81040FFF748
:10063000CBBD000000487047B800002001491820D9
:10064000ABBEFEE726000200704700BFFEE7704722
:1006500072B600BFFEE70146002291F82100022891
:1006600008D00420886300BF002081F8200000BF6C
:10067000012070470868006820F00E000B681860C1
:100680000868006820F001000B68186091F840309D
:1006900001209840CB6B5860012081F8210000BFF9
:1006A000002081F8200000BF1046E2E770B5044644
:1006B000002594F82100022803D00420A06301251E
:1006C000C1E02068006820F00E0021680860206802
:1006D000006820F00100216808605C4920688842B9
:1006E00052D95A4978392068884201D1012047E01F
:1006F000564964392068884201D1102040E05349AE
:1007000050392068884201D1801539E04F493C3981
:100710002068884201D1801432E04C492839206891
:10072000884202D14FF480302AE0484914392068C9
:10073000884202D14FF4801022E044492068884268
:1007400001D140041CE042492068884201D10120C7
:1007500016E03F4914312068884201D110200FE093
:100760003B4928312068884201D1801508E038498A
:100770003C312068884201D1801401E04FF4803080
:100780003349091F086051E03049783920688842B0
:1007900001D1012047E02D4964392068884201D108
:1007A000102040E0294950392068884201D1801545
:1007B00039E026493C392068884201D1801432E072
:1007C000224928392068884202D14FF480302AE03B
:1007D0001E4914392068884202D14FF4801022E06B
:1007E0001A492068884201D140041CE01849206859
:1007F000884201D1012016E0154914312068884251
:1008000001D110200FE0124928312068884201D11F
:10081000801508E00E493C312068884201D18014DF
:1008200001E04FF48030094980394860012084F8A4
:10083000210000BF002084F8200000BF606B10B1D1
:100840002046616B8847284670BD0000800002404A
:10085000080402402DE9F847024600239C467BE14C
:100860004FF0010808FA03F4D1F8008008EA040008
:10087000A0427DD1DFF8F4A2D1F80480A8EB0A09E8
:10088000D0453AD014DCB8F1030F50D009DCB8F1F0
:10089000000F31D0B8F1010F1CD0B8F1020F49D1CF
:1008A00020E0B8F1110F18D0B8F1120F42D11EE0BC
:1008B000B9F5881F25D006DCB9F5803F20D0B9F501
:1008C000801F37D11AE0B9F5001F18D0B9F5041F01
:1008D00030D117E0D1F80CC02DE0D1F80C8008F130
:1008E000040C28E0D1F80C8008F1080C23E0D1F8C2
:1008F0000C8008F10C0C1EE000BF00BF00BF00BF61
:1009000000BF00BFD1F80880B8F1000F02D14FF04E
:10091000040C0BE0D1F80880B8F1010F03D14FF0BF
:10092000080C146102E04FF0080C546103E04FF032
:10093000000C00E000BF00BFFF2801D8904601E096
:1009400002F104084646FF2802D84FEA830803E074
:10095000A3F108084FEA88084746D6F800804FF010
:100960000F0909FA07F928EA09080CFA07F900E063
:100970007AE048EA0908C6F80080D1F8048008F057
:100980008058B8F1805F6FD100BFDFF8E481D8F8FC
:10099000188048F00108DFF8D891C9F81880C846D7
:1009A000D8F8188008F00108CDF8008000BF00BF1B
:1009B0004FEAB9384FEA930958F829504FEA83783B
:1009C0004FEA18794FF00F0808FA09F825EA0805E8
:1009D000DFF8A081424502D14FF0000824E0DFF8A3
:1009E0009881424502D14FF001081DE0DFF88C816B
:1009F000424502D14FF0020816E0DFF884814245FB
:100A000002D14FF003080FE0DFF87881424502D1B0
:100A10004FF0040808E0DFF87081424502D14FF042
:100A2000050801E04FF006084FEA83794FEA19798B
:100A300008FA09F848EA0505DFF850814FEA9309FA
:100A400048F82950D1F8048008F48018B8F5801FC0
:100A50000BD1DFF83C81D8F8008048EA0008DFF8C5
:100A60003091C9F800800AE075E0DFF82481D8F8F9
:100A7000008028EA0008DFF81891C9F80080D1F852
:100A8000048008F40018B8F5001F0ED1DFF80081CB
:100A900008F10408D8F8008048EA0008DFF8F09070
:100AA00009F10409C9F800800DE0DFF8E48008F1DD
:100AB0000408D8F8008028EA0008DFF8D49009F18B
:100AC0000409C9F80080D1F8048008F40038B8F5AA
:100AD000003F0ED1DFF8B880A8F10408D8F80080F4
:100AE00048EA0008DFF8A890A9F10409C9F80080D5
:100AF0000DE0DFF89C80A8F10408D8F8008028EA0F
:100B00000008DFF88C90A9F10409C9F80080D1F839
:100B1000048008F48038B8F5803F0ED1DFF870808B
:100B2000A8F10808D8F8008048EA0008DFF86090CB
:100B3000A9F10809C9F800800DE0DFF85480A8F198
:100B40000808D8F8008028EA0008DFF84490A9F1E6
:100B50000809C9F800805B1CD1F8008028FA03F866
:100B6000B8F1000F7FF47CAEBDE8F88700001110EB
:100B70000010024000080140000C0140001001403C
:100B80000014014000180140001C01400800014011
:100B900008040140024693680B400BB1012000E0BD
:100BA000002070470AB1016101E00B040361704746
:100BB00001480068704700001800002003480068E2
:100BC000034909780844014908607047180000206B
:100BD0002000002010B50848006840F010000649C9
:100BE0000860032000F0A8F80F2000F007F800F0DC
:100BF0002BF8002010BD00000020024070B5044614
:100C00000E4800784FF47A71B1FBF0F00C49096896
:100C1000B1FBF0F5284600F0F9FB08B1012070BDEA
:100C2000102C07D200222146501E00F047F805483C
:100C3000046001E00120F2E70020F0E7200000203E
:100C4000240000201C00002008B500BF1148806966
:100C500040F001000F4988610846806900F00100FA
:100C6000009000BF00BF00BF0846C06940F0805040
:100C7000C8610846C06900F08050009000BF00BF06
:100C800000BF0549486820F0E06040F0007048600F
:100C900000BF08BD001002400000014001460846A8
:100CA000002809DB00F01F0301229A4043099B0042
:100CB00003F1E023C3F8002100BF70472DE9F05F86
:100CC00080460D461646002701F0C8FB0746394608
:100CD0002A46334601F00700C0F1070ABAF1040FB3
:100CE00002D94FF0040A01E0C0F1070AD14600F131
:100CF000040ABAF1070F02D24FF0000A01E0A0F196
:100D0000030AD4464FF0010A0AFA09FAAAF1010AC5
:100D10000AEA020A0AFA0CFA4FF0010B0BFA0CFB72
:100D2000ABF1010B0BEA030B4AEA0B0421464046E8
:100D300001F09CFBBDE8F09F00BF00F00702064BEE
:100D400019684FF6FF031940044B0B4343EA022195
:100D5000014B196000BF70470CED00E00000FA0580
:100D600070B504460D460CB9012070BD5A480068A4
:100D700000F00700A8420ED25748006820F0070094
:100D80002843554908600846006800F00700A8425B
:100D900001D00120E9E7207800F0020002281DD1EF
:100DA000207800F00400042805D14C48406840F445
:100DB000E0604A494860207800F00800082805D122
:100DC0004648406840F460504449486043484068A1
:100DD00020F0F000A168084340494860207800F006
:100DE000010078B36068012806D13C48006800F42F
:100DF000003090B90120B8E76068022806D1374872
:100E0000006800F0007040B90120AEE73348006888
:100E100000F0020008B90120A7E73048406820F040
:100E20000300616808432D494860FFF7C1FE06468C
:100E300009E0FFF7BDFE801B41F28831884202D9EC
:100E4000032092E707E02548406800F00C00616845
:100E5000B0EB810FEDD12048006800F00700A842F8
:100E60000ED91D48006820F0070028431A49086081
:100E70000846006800F00700A84201D0012074E78E
:100E8000207800F00400042807D11448406820F4BA
:100E9000E060E168084311494860207800F00800EC
:100EA000082808D10D48406820F46050216940EAC4
:100EB000C1000A49486000F03FF808494968C1F399
:100EC0000311074A515CC84006490860064800689B
:100ED000FFF794FE002048E7002002400010024087
:100EE00032280008240000201C000020014800686F
:100EF000704700002400002000B5FFF7F7FF044909
:100F00004968C1F30221034A515CC84000BD00009A
:100F1000001002404228000800B5FFF7E7FF04492F
:100F20004968C1F3C221034A515CC84000BD0000BA
:100F3000001002404228000870B500210022002461
:100F400000230020134D696801F00C05F5B1042D54
:100F500002D0082D19D101E00F4819E00F4DC1F35F
:100F60008346AB5D01F4803555B10A4D6D68C5F31C
:100F700040450B4E725D084D5D43B5FBF2F402E057
:100F8000084D03FB05F4204602E000BF024800BF05
:100F900000BF70BD0010024000127A002028000837
:100FA0003028000800093D00F8B504460CB90120BE
:100FB000F8BD207800F00100002878D0F84840689B
:100FC00000F00C0004280CD0F548406800F00C003C
:100FD000082811D1F248406800F48030B0F5803F15
:100FE0000AD1EF48006800F4003000285FD0606844
:100FF00000285CD10120DBE700BF6068B0F5803FCE
:1010000006D1E748006840F48030E549086028E0F0
:10101000606858B9E248006820F48030E049086010
:101020000846006820F4802008601AE06068B0F587
:10103000A02F0BD1DA48006840F48020D84908601E
:101040000846006840F4803008600AE0D448006830
:1010500020F48030D24908600846006820F48020DF
:10106000086000BF606888B1FFF7A2FD054606E092
:10107000FFF79EFD401B642801D9032098E7C8486C
:10108000006800F400300028F2D010E0FFF790FD77
:10109000054606E0FFF78CFD401B642801D90320BC
:1010A00086E7BF48006800F400300028F2D12078BD
:1010B00000F00200022857D1B948406800F00C0047
:1010C00050B1B748406800F00C00082818D1B44867
:1010D000406800F4803098B9B148006800F0020020
:1010E00020B12069012801D0012061E7AC480068E7
:1010F00020F0F800616940EAC100A949086033E0C6
:101100002069E8B10120A7490860FFF751FD0546B5
:1011100006E0FFF74DFD401B022801D9032047E7F9
:101120009F48006800F002000028F2D09C48006848
:1011300020F0F800616940EAC1009949086013E0B5
:10114000002098490860FFF733FD054606E0FFF7E9
:101150002FFD401B022801D9032029E79048006891
:1011600000F002000028F2D1207800F008000828E2
:101170002DD1A069B8B101208B490860FFF718FD97
:10118000054606E0FFF714FD401B022801D90320A5
:101190000EE78348406A00F002000028F2D00120E8
:1011A00000F09EFE13E000207F490860FFF700FD7D
:1011B000054606E0FFF7FCFC401B022801D903208E
:1011C000F6E67748406A00F002000028F2D1207865
:1011D00000F00400042873D100277148C06900F0B2
:1011E000805070B900BF6E48C06940F080506C49B3
:1011F000C8610846C06900F08050009000BF00BF81
:1012000001276A48006800F48070B0B96748006838
:1012100040F4807065490860FFF7CAFC054606E0A7
:10122000FFF7C6FC401B642801D90320C0E65F48D5
:10123000006800F480700028F2D000BFE068012848
:1012400006D15748006A40F001005549086227E07E
:10125000E06858B95248006A20F00100504908621D
:101260000846006A20F00400086219E0E0680528DA
:101270000BD14B48006A40F0040049490862084617
:10128000006A40F0010008620AE04548006A20F068
:101290000100434908620846006A20F00400086221
:1012A00000BFE068A0B1FFF783FC054609E0FFF747
:1012B0007FFC401B41F28831884202D9032077E647
:1012C00022E03748006A00F002000028EFD012E068
:1012D000FFF76EFC054608E0FFF76AFC401B41F291
:1012E0008831884201D9032062E62D48006A00F067
:1012F00002000028F0D1012F05D12948C06920F053
:1013000080502749C86100BFE069C8B324484068DD
:1013100000F00C00082860D0E069022848D10020C5
:1013200020490866FFF744FC054606E0FFF740FC4D
:10133000401B022801D903203AE61948006800F052
:1013400000700028F2D1206AB0F5803F07D1144820
:10135000406820F40030A168084311494860D4E98E
:10136000080108430E49496821F4741108430C49E7
:10137000486001200B490866FFF71AFC054607E0A4
:101380003DE0FFF715FC401B022801D903200FE6C2
:101390000348006800F000700028F2D02FE0000041
:1013A00000100240000042428004424200700040AF
:1013B000002014490866FFF7FBFB054606E0FFF72F
:1013C000F7FB401B022801D90320F1E50E48006815
:1013D00000F000700028F2D111E0E069012800D18E
:1013E000E6E50948466806F48031206A814204D166
:1013F00006F47011606A814201D00120D8E5002016
:10140000D6E50000000042420010024070B50446DC
:101410002546681EB0F1807F01D301200FE0681ED1
:101420004FF0E02148610F214FF0FF3001F01EF82E
:1014300000204FF0E021886107200861002070BD86
:101440007047704730B502460B4600BF92F83C002B
:10145000012801D1022030BD012082F83C0000BFEC
:10146000022082F83D00106844681068816824F00A
:1014700070041868044310684460144D1068A84252
:1014800013D0134D1068A8420FD01068B0F1804FF0
:101490000BD0104D1068A84207D00F4D1068A8421D
:1014A00003D00E4D1068A84205D121F08001586884
:1014B000014310688160012082F83D0000BF0020D8
:1014C00082F83C0000BF00BFC5E70000002C0140CF
:1014D000003401400004004000080040000C0040BF
:1014E00010B504460CB9012010BD94F83D0028B990
:1014F000002084F83C00204600F026F8022084F802
:101500003D00211D206800F035FD012084F84600D3
:1015100000BF84F83E0001213F20015540200155C5
:101520004120015500BF00BF012084F84200432044
:101530000155442001554520015500BF012084F884
:101540003D000020D0E7000038B504462068B0F127
:10155000804F15D100BF0B48C06940F00100094918
:10156000C8610846C06900F00100009000BF00BFDC
:10157000002202211C20FFF7A1FB1C20FFF78EFB9D
:1015800038BD000000100240014691F83D000128DE
:1015900001D001207047022081F83D00164B0868F9
:1015A000984213D0154B086898420FD00868B0F1E4
:1015B000804F0BD0124B0868984207D0114B086837
:1015C000984203D0104B086898420CD10868806894
:1015D00000F00702062A0CD00868006840F00100FD
:1015E0000B68186005E00868006840F001000B68AF
:1015F00018600020CEE70000002C014000340140BC
:101600000004004000080040000C00402DE9F041BB
:1016100004460D46002700BF94F83C00012802D183
:101620000220BDE8F081012084F83C0000BF0220C8
:1016300084F83D002068866826F0770626F47F4609
:10164000206886602868502833D00CDC202850D0D1
:1016500004DC00284BD0102851D149E0302849D073
:1016600040284CD139E060282DD0702807D0B0F543
:10167000805F03D0B0F5005F41D10DE041E0D5E9D6
:1016800002136A68206800F0C3FC2068866846F090
:1016900077062068866034E0D5E902136A6820681E
:1016A00000F0B6FC2068806840F4804021688860C3
:1016B00027E0EA686968206800F0BEFC50212068D5
:1016C00000F0B1FC1DE0EA686968206800F0C7FC22
:1016D0006021206800F0A7FC13E0EA6869682068D0
:1016E00000F0AAFC4021206800F09DFC09E000BF4A
:1016F00000BF00BF2968206800F095FC01E00127C9
:1017000000BF00BF012084F83D0000BF002084F826
:101710003C0000BF384684E7704710B50446206897
:101720000069C0F34000D8B12068C068C0F3400031
:10173000B0B16FF0020021680861012020772068B5
:10174000806900F0030018B12046FFF7E5FF05E0CF
:10175000204600F0ADF8204600F0ABF800202077DE
:1017600020680069C0F38000D8B12068C068C0F369
:101770008000B0B16FF0040021680861022020777A
:101780002068806900F4407018B12046FFF7C4FF5C
:1017900005E0204600F08CF8204600F08AF8002092
:1017A000207720680069C0F3C000D8B12068C06805
:1017B000C0F3C000B0B16FF00800216808610420D8
:1017C00020772068C06900F0030018B12046FFF7B9
:1017D000A3FF05E0204600F06BF8204600F069F812
:1017E0000020207720680069C0F30010D8B120687D
:1017F000C068C0F30010B0B16FF01000216808613C
:10180000082020772068C06900F4407018B1204695
:10181000FFF782FF05E0204600F04AF8204600F07E
:1018200048F8002020772068006900F0010058B1D6
:101830002068C06800F0010030B16FF0010021683D
:101840000861204600F036F820680069C0F3C01037
:1018500058B12068C068C0F3C01030B16FF080008C
:10186000216808612046FFF7EBFD20680069C0F39E
:10187000801058B12068C068C0F3801030B16FF09C
:10188000400021680861204600F015F820680069D2
:10189000C0F3401058B12068C068C0F3401030B1A8
:1018A0006FF02000216808612046FFF7CAFD10BDD7
:1018B0007047704770477047704770472DE9F84F81
:1018C0000446206805682068C668206847694FF0AC
:1018D0000009CA4605F00F09B9F1000F0AD105F059
:1018E000200038B106F0200020B1204600F01BFC9B
:1018F000BDE8F88FB9F1000F7BD007F0010018B9EF
:1019000006F49070002874D005F0010030B106F4A0
:10191000807018B1606C40F00100606405F0040054
:1019200030B107F0010018B1606C40F00200606453
:1019300005F0020030B107F0010018B1606C40F012
:101940000400606405F0080048B106F0200010B9FA
:1019500007F0010018B1606C40F008006064606C32
:10196000002845D005F0200028B106F0200010B175
:10197000204600F0D8FB20684069C0F3801A606CF4
:1019800000F0080010B9BAF1000F2CD0204600F08A
:1019900084FB2068406900F0400000B300BF00BF36
:1019A0002168143151E8001F21F0400021681431F2
:1019B00041E80002002AF3D100BFE06B50B1774844
:1019C000E16B4863E06BFEF771FE88B1E06B416B41
:1019D00088470DE02046FFF770FF09E009E0204648
:1019E000FFF76BFF04E02046FFF767FF002060640D
:1019F0007EE7206B012877D105F01000002873D016
:101A000006F010000028FAD000BF002000902068E7
:101A10000068009020684068009000BF00BF206808
:101A2000406900F0400000285FD0E06B006840682B
:101A30001FFA80F8B8F1000F55D0A08D404552DD57
:101A4000A4F82E80E06B8069202843D000BF00BF3F
:101A500021680C3151E8001F21F4807021680C319D
:101A600041E80002002AF3D100BF00BF00BF216897
:101A7000143151E8001F21F001002168143141E8C0
:101A80000002002AF3D100BF00BF00BF216814315B
:101A900051E8001F21F040002168143141E80002A4
:101AA000002AF3D100BF202084F8420000202063E8
:101AB00000BF00BF21680C3151E8001F21F0100069
:101AC00021680C3141E80002002AF3D100BFE06B2D
:101AD000FEF7C1FD02206063A08DE28D801A81B205
:101AE0002046FFF7E9FE03E742E0A08DE18D401AB2
:101AF0001FFA80F8E08DD0B3B8F1000F37D000BFE7
:101B000000BF21680C3151E8001F21F4907021685A
:101B10000C3141E80002002AF3D100BF00BF00BF32
:101B20002168143151E8001F21F0010021681431AF
:101B300041E80002002AF3D100BF202084F84200CF
:101B40000020206300BF00BF21680C3151E8001F56
:101B500021F0100021680C3141E80002002AF3D185
:101B600000BF0220606341462046FFF7A5FEBFE6A6
:101B700005F0800030B106F0800018B1204600F07A
:101B8000E9FBB5E605F0400030B106F0400018B1C1
:101B9000204600F0B8FAABE600BFA9E687200008AF
:101BA00010B504460CB9012010BDA06900B100E0D9
:101BB00000BF94F8410028B9002084F84000204676
:101BC00000F02AF8242084F841002068C06820F43E
:101BD00000502168C860204600F03EFB2068006984
:101BE00020F49040216808612068406920F02A00B4
:101BF000216848612068C06840F400502168C860CE
:101C000000206064202084F8410084F84200002015
:101C1000606300BFC8E7000010B586B0044600202E
:101C200002900390049005901E492068884236D1A6
:101C300000BF1D48806940F480401B498861084608
:101C4000806900F48040019000BF00BF00BF0846DB
:101C5000806940F0040088610846806900F0040053
:101C6000019000BF00BF481502900220039003209E
:101C7000059002A90D48FEF7EDFD4FF4806002903B
:101C800000200390049002A90848FEF7E3FD00221B
:101C900011462520FFF712F82520FEF7FFFF06B0BA
:101CA00010BD000000380140001002400008014053
:101CB00070472DE9F84F04460E46174699464FF0F7
:101CC000000A94F8410020284AD106B117B9012032
:101CD000BDE8F88F00206064212084F84100FEF701
:101CE00067FF8246A784E784A068B0F5805F04D1CF
:101CF000206910B90025B04602E035464FF00008D3
:101D00001BE05346002280212046CDF8009000F0D1
:101D100051FB08B10320DBE745B9B8F80000C0F378
:101D200008002168486008F1020803E0287821686B
:101D300048606D1CE08C401EE084E08C0028E0D1FF
:101D40005346002240212046CDF8009000F032FB9F
:101D500008B10320BCE7202084F841000020B7E749
:101D60000220B5E7704700BFFEE7000000B585B070
:101D70000020019002900390049000BF29488069E0
:101D800040F04000274988610846806900F0400023
:101D9000009000BF00BF00BF0846806940F004000B
:101DA00088610846806900F00400009000BF00BF11
:101DB00000BF0846806940F00800886108468069D5
:101DC00000F00800009000BF00BF00220721164865
:101DD000FEF7E8FE002228211448FEF7E3FE072064
:101DE000019001200290002003900220049001A99C
:101DF0000D48FEF72FFD28200190012002900020C1
:101E000003900220049001A90848FEF723FD10204A
:101E1000019000200290039001A90448FEF71AFDEA
:101E200005B000BD0010024000180140000C014048
:101E300000B587B0002003900490059006900190B3
:101E400002904FF080401449086048F69F40486077
:101E500000211148816040F2CF71C1600021016111
:101E60008161FFF73DFB08B1FEF7F2FB4FF48050B4
:101E7000039003A90848FFF7C9FB08B1FEF7E8FB88
:101E800000200190029001A90348FFF7DBFA08B196
:101E9000FEF7DEFB07B000BD2800002010B50B48A0
:101EA0000B4908604FF4E130486000210848816028
:101EB000C16001610C21416100218161C161FFF7B5
:101EC0006FFE08B1FEF7C4FB10BD000000380140F2
:101ED0007000002000BFFEE700BFFEE77047000073
:101EE00008B508490968C9084FF47A72B1FBF2F1E4
:101EF0004143009100BF00BF00994A1E0092002993
:101F0000F9D108BD24000020704710B5FEF756FE39
:101F100010BD00B58FB0282105A8FEF7B4FA142132
:101F20006846FEF7B0FA02200590012009901020C3
:101F30000A9000200C9005A8FFF736F808B1FEF7CC
:101F400087FB0F20009000200190029003900490E6
:101F500000216846FEF704FF08B1FEF779FB0FB0D9
:101F600000BD704710B50248FFF7D7FB10BD000059
:101F70002800002010B50268204B98420ED0204B5C
:101F800098420BD0B0F1804F08D01E4B984205D03C
:101F90001D4B984202D01D4B984203D122F0700293
:101FA0004B681A43154B98420ED0154B98420BD0F4
:101FB000B0F1804F08D0134B984205D0124B984295
:101FC00002D0124B984203D122F44072CB681A43DC
:101FD00022F080034C6943EA040202608B68C3620A
:101FE0000B688362054B984202D0054B984201D1A1
:101FF0000B6903630123436110BD0000002C014005
:10200000003401400004004000080040000C004083
:1020100030B50C46816821F47F4142EA032525430F
:102020002943816030BD0A46816821F0700142F089
:10203000070319438160704730B50B461446026AA6
:10204000056A25F001050562816921F0F00141EA88
:10205000041122F00A021A438161026230BD30B5D8
:102060000B461446026A056A25F01005056281696F
:1020700021F4704141EA043122F0A00242EA031245
:102080008161026230BD70B505466C6A0020E08552
:10209000E0842046FFF711FC70BD00BF00BF02685E
:1020A0000C3252E8002F22F4907102680C3242E8A0
:1020B0000013002BF3D100BF00BF00BF0268143231
:1020C00052E8002F22F001010268143242E80013A6
:1020D000002BF3D100BF016B01290ED100BF00BF5F
:1020E00002680C3252E8002F22F0100102680C3214
:1020F00042E80013002BF3D100BF202180F84210EA
:1021000000210163704710B504462068C06820F0C4
:1021100040002168C860202084F841002046FFF775
:1021200021FE002010BDF8B5044694F84200222894
:1021300075D1A068B0F5805F0CD1206950B9002539
:10214000A66A20684068C0F308003080A06A801C3E
:10215000A06215E0A56A0026A068B0F5805F03D0F4
:10216000A06828B9206918B920684068287004E080
:102170002068406800F07F002870A06A401CA062C0
:10218000E08D401E80B2E085002846D12068C068FE
:1021900020F020002168C8602068C06820F48070AA
:1021A0002168C8602068406920F00100216848610A
:1021B000202084F8420000206063206B012826D193
:1021C0000020206300BF00BF21680C3151E8001FD0
:1021D00021F0100021680C3141E80002002AF3D1FF
:1021E00000BF2068006800F0100010280AD100BF6E
:1021F00000200090206800680090206840680090EF
:1022000000BF00BFA18D2046FFF756FB02E020462D
:10221000FFF74EFD0020F8BD01E00020FBE70220A3
:10222000F9E7000038B50446234608A203216846B2
:10223000FDF7F0FF6846FEF707F985B24FF0FF3370
:102240002A4669460348FFF734FD38BD253032641D
:10225000000000007000002070B504462168096984
:1022600021F44051E2681143226811612269A1689A
:102270001143626941EA02052168C96841F20C62B2
:10228000914329432268D1602168496921F4407152
:10229000A2691143226851612D4A2168914202D1FD
:1022A000FEF73AFE01E0FEF727FE00EBC00101EB6E
:1022B000001162689200B1FBF2F100EBC00202EB88
:1022C000001263689B00B2FBF3F26423B2FBF3F2EB
:1022D00002EBC20303EB0212A1EB8201322202EBFA
:1022E00001116422B1FBF2F101F0F00100EBC00238
:1022F00002EB001263689B00B2FBF3F26423B2FBB3
:10230000F3F201EB021200EBC00101EB0011636874
:102310009B00B1FBF3F100EBC00303EB0013666815
:10232000B600B3FBF6F36426B3FBF6F303EBC30688
:1023300006EB0313A1EB8301322303EB01116423AA
:10234000B1FBF3F101F00F0111442268916070BDFF
:1023500000380140014691F84100212828D18868C1
:10236000B0F5805F0BD1086948B90A6A1088C0F3DC
:1023700008000B685860086A801C086205E00B6A58
:10238000581C086218780B685860C88C401E80B2D0
:10239000C88458B90868C06820F080000B68D8600D
:1023A0000868C06840F040000B68D86000207047A3
:1023B0000220FCE72DE9F04104460D4617469846F9
:1023C000069E34E0701C88B32EB1FEF7F1FBA0EB43
:1023D0000800B0422BD900BF00BF21680C3151E882
:1023E000001F21F4D07021680C3141E80002002A5E
:1023F000F3D100BF00BF00BF2168143151E8001FB6
:1024000021F001002168143141E80002002AF3D1D3
:1024100000BF202084F8410084F8420000BF002063
:1024200084F8400000BF0320BDE8F081FFE720688A
:1024300000682840A84201D1012000E00020B842F5
:10244000C0D00020F0E7000010B50248FFF736FAD0
:1024500010BD00007000002000BFFEE702480068C9
:10246000C0F30220704700000CED00E010B500281A
:1024700004DB0A07130E054A135406E00A07140E7C
:10248000034A00F00F031B1FD45410BD00E400E00A
:1024900018ED00E030380A2801D2012070470020F2
:1024A0007047000010B5012202211B48FEF77AFB9D
:1024B000002202211848FEF775FB0122022116486E
:1024C000FEF770FB002423E010211448FEF762FBA6
:1024D00048B9C4F1070101208840114909788143B6
:1024E0000F48017008E0C4F10701012088400C4941
:1024F000097808430A490870012208210748FEF7B5
:1025000051FB002208210548FEF74CFB601CC4B2B9
:10251000072CD9DD10BD000000180140000C01405F
:102520000400002070B505460E46002415E01E4844
:10253000405D8021214100EA010220211B48FEF775
:1025400031FB012208211948FEF72CFB002208214B
:102550001648FEF727FB601CC4B2082CE7DB0024FA
:1025600015E01348815D8020204101EA000220210E
:102570000E48FEF717FB012208210C48FEF712FB5C
:10258000002208210948FEF70DFB601CC4B2082C8C
:10259000E7DB012211460748FEF704FB0022012178
:1025A0000448FEF7FFFA70BD13000020000C014044
:1025B000090000200018014000F012F940B2134950
:1025C000087000F00DF940B211490870FEF702FBE7
:1025D000FFF79FFCFFF7CAFBFFF72AFCFFF75EFC43
:1025E0000C48FEF7D1FF002208210B48FEF7DAFA6B
:1025F000002201210948FEF7D5FA002204210748EC
:10260000FEF7D0FA01E000F00BF8FCE7050000202F
:102610000600002028000020000C014000180140A6
:1026200010B5FFF73FFF6848007800F0200070BB4E
:102630006648007858BB01206449087064480078F7
:10264000401C40B262490870084600780A2807D149
:10265000002008705F480078401C40B25D49087057
:102660005B4890F90000401C40B9092058490870A7
:1026700058480078401E40B256490870544890F9B6
:102680000010544890F9000000F0C0F80DE0FFE79A
:102690004D48007800F02000202806D14B480078F3
:1026A000012802D10020494908704748007800F00D
:1026B000400070BB4848007858BB0120464908706C
:1026C00043480078401C40B24149087008460078F1
:1026D0000A2807D1002008703E480078401C40B20C
:1026E0003C4908703A4890F90000401C40B9092064
:1026F0003749087037480078401E40B235490870A5
:10270000334890F90010334890F9000000F07EF84B
:102710000DE0FFE72C48007800F04000402806D18B
:102720002D480078012802D100202B490870264846
:10273000007800F0800070BB2848007858BB01206A
:102740002649087022480078401E40B2204908708F
:10275000084600780A2807D1002008701D48007834
:10276000401C40B21B490870194890F90000401CF9
:1027700040B909201649087016480078401E40B23A
:1027800014490870124890F90010124890F900009E
:1027900000F03CF80DE0FFE70B48007800F0800007
:1027A000802806D10D480078012802D100200B496D
:1027B0000870084801780020FFF7B4FE044801784B
:1027C0000120FFF7AFFE10BD040000200100002033
:1027D0000500002006000020020000200300002069
:1027E000084800780849484343F2390108440A215F
:1027F00090FBF1F201FB12000249087008460078D4
:1028000070470000070000206D4EC64170B50446B9
:102810000D4604EB840105EB4100FFF703FD70BD9D
:1028200002030405060708090A0B0C0D0E0F101011
:10283000010200000000000000000102030406077E
:102840000809000000000102030404000008000061
:102850000000000000020001000010007C280008B9
:1028600000000020280000006C010008A4280008D7
:1028700028000020F0060000880100080000000089
:10288000FF00000003AFA06EEAE1CBCFA2EFEB08A0
:102890001020408000000000100000000100000037
:0428A0000024F4001C
:0400000508000131BD
:00000001FF
