:020000040800F2
:1000000080060020210200082F0E0008F10C0008D5
:100010002D0E0008170400088B0E000800000000D9
:10002000000000000000000000000000330E000887
:100030001904000800000000310E0008350E000809
:100040003B0200083B0200083B0200083B0200089C
:100050003B0200083B0200083B0200083B0200088C
:100060003B0200083B0200083B0200083B0200087C
:100070003B0200083B0200083B0200083B0200086C
:100080003B0200083B0200083B0200083B0200085C
:100090003B0200083B0200083B0200083B0200084C
:1000A0003B0200083B0200083B0200083B0200083C
:1000B0003B0200083B0200083B0200083B0200082C
:1000C0003B0200083B0200083B0200083B0200081C
:1000D0003B0200083B0200083B0200083B0200080C
:1000E0003B0200083B0200083B0200083B020008FC
:1000F0003B0200083B0200083B0200083B020008EC
:100100003B0200083B0200083B0200083B020008DB
:100110003B0200083B0200083B0200083B020008CB
:100120003B0200083B0200083B0200083B020008BB
:100130003B0200083B0200083B0200083B020008AB
:100140003B0200083B0200083B0200083B0200089B
:100150003B0200083B0200083B0200083B0200088B
:100160003B0200083B0200083B0200083B0200087B
:100170003B0200083B0200083B02000800000000B0
:100180003B02000800F002F800F03AF80AA090E8FC
:10019000000C82448344AAF10107DA4501D100F042
:1001A0002FF8AFF2090EBAE80F0013F0010F18BFD5
:1001B000FB1A43F001031847000E0000200E000058
:1001C000103A24BF78C878C1FAD8520724BF30C883
:1001D00030C144BF04680C60704700000023002455
:1001E00000250026103A28BF78C1FBD8520728BF47
:1001F00030C148BF0B6070471FB51FBD10B510BDA3
:1002000000F0CFF81146FFF7F7FF00F04FFE00F0C7
:10021000EDF803B4FFF7F2FF03BC00F0F5F80000BF
:100220000948804709480047FEE7FEE7FEE7FEE78A
:10023000FEE7FEE7FEE7FEE7FEE7FEE704480549C6
:10024000054A064B70470000890E0008850100082A
:100250008000002080060020800200208002002014
:1002600053EA020C00F069802DE9F04B4FF00006D4
:10027000002B1FBFB3FA83F503FA05F424FA05F641
:100280005E4012BF1643B2FA82F502FA05F4C5F1D8
:1002900020051EBF22FA05FC44EA0C04203556EA6C
:1002A000044C4FEA144418BF641C4FF000084FF090
:1002B0000009904271EB030C39D3002919BFB1FA40
:1002C00081F701FA07F6B0FA80F700FA07F6C7F1EE
:1002D00020071EBF20FA07FC46EA0C062037B6FBB3
:1002E000F4FCA7EB0507103F07F01F0BCBF120062E
:1002F0000CFA0BFB2CFA06F644BFB3460026202F5F
:10030000A4BF5E464FF0000B5BEA060C08BF4FF03F
:10031000010B19EB0B09ABFB027C48EB0608C01B79
:1003200006FB02CC0BFB03CC71EB0C01C1E70B46C7
:10033000024641464846BDE8F08B13B54FF0000039
:100340004FF00001AFF30080BDE81C4070474FF054
:10035000000200B5134694469646203922BFA0E815
:100360000C50A0E80C50B1F12001BFF4F7AF090721
:1003700028BFA0E80C5048BF0CC05DF804EB890012
:1003800028BF40F8042B08BF704748BF20F8022B55
:1003900011F0804F18BF00F8012B7047704770476D
:1003A0007047754600F02CF8AE4605006946534686
:1003B00020F00700854618B020B5FFF73FFFBDE8E5
:1003C00020404FF000064FF000074FF000084FF0BC
:1003D000000B21F00701AC46ACE8C009ACE8C0094D
:1003E000ACE8C009ACE8C0098D46704710B50446BA
:1003F000AFF300802046BDE81040FFF70ABF0000C1
:10040000004870471C00002001491820ABBEFEE7E1
:10041000260002007047FEE7704700002DE9F04F0C
:10042000DFF85092002301260325A9F1040B85B0C3
:100430000F2709F1040AABF1040E12E1224606FA75
:1004400003F422407ED091F804C00CF0030CBCF100
:10045000010F02D0BCF1020F26D1D0F80880CDF8F0
:1004600000804FEA430805FA08FCCDF81080DDF85B
:10047000008028EA0C08CDF80080D1F80CC0DDF827
:1004800010800CFA08FCDDF800804CEA080CC0F87B
:1004900008C0D0F804C02CEA040C0C79C4F3001492
:1004A0009C4044EA0C0444600C79E443A40712D055
:1004B000C4684FEA430CCDF808C005FA0CFC24EAE6
:1004C0000C04D1F80880DDF808C008FA0CF848EAF6
:1004D0000408C0F80C800C7904F00304022C16D137
:1004E000DC0800EB840CCDF808C0DCF820C05C0709
:1004F0004FEAD46807FA08F42CEA040C0C6904FAF1
:1005000008F444EA0C04DDF808C0CCF82040046884
:100510004FEA430805FA08FC24EA0C0491F804C0E9
:100520000CF0030C0CFA08FC4CEA040CC0F800C0F8
:100530004C6814F4403F05D04F4CD4F800C04CF444
:10054000804C00E08CE0C4F800C0246823F0030C69
:1005500004F480440094494C64440294D4F808485C
:100560004FEA837C4FEA1C7807FA08FC24EA0C0463
:10057000DFF80CC1604502D14FF0000C39E0DFF824
:1005800004C1604502D14FF0010C32E0DFF8F8C041
:10059000604502D14FF0020C2BE0DFF8F0C060455F
:1005A00002D14FF0030C24E0DFF8E4C0604502D133
:1005B0004FF0040C1DE0DFF8DCC0604502D14FF0C5
:1005C000050C16E0DFF8D0C0604502D14FF0060CF4
:1005D0000FE0DFF8C8C0604502D14FF0070C08E01B
:1005E000DFF8BCC0604502D14FF0080C01E04FF0CD
:1005F000090C0CFA08FC4CEA040C029CC4F808C86C
:10060000D9F80040CC46D1F8048094435FEAC8286A
:1006100000D51443CCF80040DAF80040D446D1F8B5
:10062000048094435FEA882800D51443CCF8004046
:10063000DBF80040DC46D1F8048094435FEA883858
:1006400000D51443CCF80040DEF80040F446D1F861
:10065000048094435FEAC83800D51443CCF80040C6
:100660005B1C0A681446DA407FF4E8AE05B0BDE8CA
:10067000F08F0000083C0140443802400030014047
:10068000000002400004024000080240000C02404A
:10069000001002400014024000180240001C0240FA
:1006A000002002400069084000D0012070470AB1D4
:1006B000816170470904FBE70148806870470000CA
:1006C0000C00002002488168027811448160704764
:1006D0000C0000200B4810B5016841F40071016066
:1006E000016841F480610160016841F4807101603A
:1006F000032000F061F80F2000F006F800F024F865
:10070000002010BD003C024070B50D4D04464FF472
:100710007A712878B1FBF0F00A490968B1FBF0F072
:1007200000F0D2FA48B9102C07D200222146501E00
:1007300000F022F800206C6070BD012070BD000048
:100740000C000020180000200A4808B5016841F498
:1007500080410160006800F4804000900548001F5F
:10076000016841F080510160006800F08050009005
:1007700008BD000044380240F0B40E4B1B680C4624
:10078000C3F30223C3F10705042D00D90425191D65
:10079000072901D2002300E0DB1E012606FA05F13D
:1007A000491E214099409E40761E16403143F0BCC0
:1007B00000F06CBB0CED00E0064900F00702086891
:1007C0004FF6FF03184040EA0220034A1043086036
:1007D000704700000CED00E00000FA052DE9F0473D
:1007E0000E46050063D0DFF81C81D8F80000F7B290
:1007F00000F00F00B04207D288F80070D8F800006F
:1008000000F00F00B04252D128683F4C810712D54A
:10081000400703D5206840F4E050206028780007A6
:1008200003D5206840F4604020602068A96820F06B
:10083000F000084320602878C0072BD03249686850
:100840000839012810D00968022810D0890700292A
:100850002DDA216821F0030101432160FFF72CFF0D
:10086000814641F2883A0EE009688903EFE7890181
:10087000EDE700BFFFF720FFA0EB0901514502D9CA
:100880000320BDE8F0872068696800F00C00B0EB39
:10089000810FEFD1D8F80010404601F00F01B142AE
:1008A00007D90770006800F00F00B04201D00120A6
:1008B000E7E72878400705D52068E96820F4E0508C
:1008C000084320602878000706D52068296920F4AD
:1008D000604040EAC100206000F01EF82168F0226C
:1008E00092FAA2F201F0F001B2FA82F2D140074A84
:1008F000515CC8400649086006480068FFF704FFDD
:100900000020BEE7003C024008380240A80F000863
:100910001800002010000020154810B5006810F0E5
:100920000C02144813D01449042A0FD0082A0ED1FF
:100930000F4C241F2268236802F03F025B0207D598
:100940002068C0F38810A0FB010106E0084610BD36
:100950002168C1F38811A1FB00010023FFF780FC8F
:100960002168C1F30141491C4900B0FBF1F010BD01
:10097000083802400024F40040787D012DE9F84F4A
:1009800004007BD0DFF828B32078ABF10406C00761
:10099000A6F1040536D0DBF800105846C1F38101FA
:1009A000012907D00068C0F38100022809D130680E
:1009B000400206D52868800324D560680028E0D06E
:1009C00020E0BB492079891F0870606868B1FFF793
:1009D00073FE074605E000BFFFF76EFEC01B6428EC
:1009E00076D828688003F7D50CE0FFF765FE074648
:1009F00005E000BFFFF760FEC01B6428F0D8286840
:100A00008003F7D42078DFF8AC8280074FF000092C
:100A100044D5DBF80010584611F00C0F4FF0F80ADF
:100A200007D00068C0F38100022809D13068400275
:100A300006D42868800715D5E06801281ED111E08A
:100A4000E068E0B10120C8F80000FFF735FE074676
:100A500005E000BFFFF730FEC01B0228C0D82868A1
:100A60008007F7D528689AFAAAF22169B2FA82F2C9
:100A700020F0F8009140084328600FE013E1C8F827
:100A80000090FFF719FE074605E000BFFFF714FED0
:100A9000C01B02281CD828688007F7D420780007DC
:100AA00027D5DFF80CA2844861690AF16C0A81B18C
:100AB00001210160FFF700FE074604E0FFF7FCFD9F
:100AC000C01B022804D8DAF800008007F6D510E031
:100AD00082E0C0F80090FFF7EFFD074605E000BF99
:100AE000FFF7EAFDC01B022876D8DAF8000080077D
:100AF000F6D4207840075FD5DFF8B4A100270AF1CB
:100B0000380ADAF80000C0000BD4DAF8001041F01F
:100B10008051CAF80010DAF80000012700F0805078
:100B200000906648016841F4807101600168C90560
:100B300012D4016841F480710160FFF7BDFD00909F
:100B400006E000BFFFF7B8FD0099401A02287ED8E2
:100B50005A480068C005F5D55549207A68310870B3
:100B6000A06888B1FFF7A8FD009007E0FFF7A4FD9B
:100B70000099411A41F28830814268D84C48683067
:100B800000688007F2D510E0FFF796FD009007E0BF
:100B9000FFF792FD0099411A41F28830814256D800
:100BA0004348683000688007F2D42FB1DAF80010AB
:100BB00021F08051CAF80010A069B8B3DBF800102A
:100BC000C1F38101022949D00228C8F8609004D0FD
:100BD000FFF772FD04463DE039E0FFF76DFD074683
:100BE00005E000BFFFF768FDC01B64282FD8286808
:100BF0008001F7D4D4E907010843616A94F82C20F6
:100C0000890141EA02610843A16A2D4A490802EBC1
:100C10000141084331682B4A1140084330600120EC
:100C2000C8F86000FFF748FD044606E03DE000BF5D
:100C3000FFF742FD001B642809D828688001F7D51A
:100C400033E000BFFFF738FD001B642802D9032002
:100C5000BDE8F88F28688001F4D426E00128F7D099
:100C60003068E26900F4800191421CD1226A00F0F0
:100C70003F01914217D147F6C071626A0140B1EB62
:100C8000821F10D1A26A4FF0FF3300F4403103EB12
:100C90005202B1EB024F06D194F82C1000F07060B4
:100CA000B0EB016F01D00120D2E70020D0E70000B7
:100CB0000838024000004742800E47420070004062
:100CC0000000FFFF0080BCF010B5401EB0F1807F37
:100CD00001D3012010BD4FF0E02460610F216017A7
:100CE00000F0D4F80020A06107202061002010BD92
:100CF000FEE700002DE9F04387B014216846FFF7B6
:100D000026FB44480024016841F0010101600168AC
:100D100001F001010591016841F0020101600168E3
:100D200001F002010591016841F0100101600168C4
:100D300001F010010591016841F0080101600168AE
:100D400001F008010591016841F0040101600068AB
:100D5000314F00F004000590002280213846FFF753
:100D6000A6FCDFF8B890002202214846FFF79FFC5E
:100D7000DFF8AC804FF4F066002231464046FFF7C2
:100D800096FC802000900125CDE901546946384643
:100D90000394FFF743FB02200090CDE9015469461C
:100DA00048460394FFF73AFB0096CDE901546946A3
:100DB00040460394FFF732FBA803CDE900046946DF
:100DC00040460294FFF72AFB4FF46250CDE900043D
:100DD000694614480294FFF721FB4FF4E070CDE917
:100DE0000004694610480294FFF718FBE803CDE9B8
:100DF0000004694638460294FFF710FB3820CDE91D
:100E00000004694648460294FFF708FB07B0BDE8B6
:100E1000F08300003038024000000240000402402D
:100E200000100240000C024000080240FEE7FEE70E
:100E300070477047FFF746BC10B592B03021684646
:100E4000FFF785FA14210CA8FFF781FA0220009021
:100E50000120039010200024049006946846FFF7B8
:100E60008DFD08B172B6FEE70F20CDE90C040E949B
:100E70000F9400210CA81094FFF7B0FC002801D0BB
:100E800072B6FEE712B010BD7047FEE70907090E03
:100E9000002804DB00F1E02080F80014704700F027
:100EA0000F0000F1E02080F8141D7047FFF712FCDE
:100EB000FFF7C2FFFFF71EFF354F012280213846A2
:100EC000FFF7F5FB334D012202212846FFF7EFFB28
:100ED000314C012280212046FFF7E9FB0122160256
:100EE00031462046FFF7E3FB012251022046FFF77F
:100EF000DEFB012291022046FFF7D9FBBA46A0464D
:100F0000B146264E264C274F4FF4006B59463046CB
:100F1000FFF7C8FB207040213846FFF7C3FB607025
:100F200080213846FFF7BEFBA0704FF48041404659
:100F3000FFF7B8FBE0704FF400415046FFF7B2FBFB
:100F4000207149463846FFF7ADFB60714FF4005100
:100F50003046FFF7A7FBA07120212846FFF7A2FB30
:100F6000E07110212846FFF79DFB207208212846DA
:100F7000FFF798FB607280213046FFF793FBA07269
:100F80004FF480513046FFF78DFBE072BEE7000062
:100F9000000002400004024000100240000C024029
:100FA00000000020000802400000000000000000D7
:100FB0000102030406070809D80F000800000020FA
:100FC0001C000000C0010008F40F00081C000020F5
:100FD00064060000DC0100080000000000000000C2
:100FE00000000000010000001000000000000000F0
:040FF0000024F400E5
:040000050800018569
:00000001FF
